{"abi":[{"type":"constructor","inputs":[],"stateMutability":"nonpayable"},{"type":"function","name":"DEFAULT_ADMIN_ROLE","inputs":[],"outputs":[{"name":"","type":"bytes32","internalType":"bytes32"}],"stateMutability":"view"},{"type":"function","name":"MANAGER_ROLE","inputs":[],"outputs":[{"name":"","type":"bytes32","internalType":"bytes32"}],"stateMutability":"view"},{"type":"function","name":"MAX_ORACLE_STALENESS","inputs":[],"outputs":[{"name":"","type":"uint256","internalType":"uint256"}],"stateMutability":"view"},{"type":"function","name":"MIN_UPDATE_INTERVAL","inputs":[],"outputs":[{"name":"","type":"uint256","internalType":"uint256"}],"stateMutability":"view"},{"type":"function","name":"MIN_VALID_ORACLES","inputs":[],"outputs":[{"name":"","type":"uint256","internalType":"uint256"}],"stateMutability":"view"},{"type":"function","name":"OPERATOR_ROLE","inputs":[],"outputs":[{"name":"","type":"bytes32","internalType":"bytes32"}],"stateMutability":"view"},{"type":"function","name":"authorizeOracleAdapter","inputs":[{"name":"adapter","type":"address","internalType":"address"}],"outputs":[],"stateMutability":"nonpayable"},{"type":"function","name":"deauthorizeOracle","inputs":[{"name":"adapter","type":"address","internalType":"address"}],"outputs":[],"stateMutability":"nonpayable"},{"type":"function","name":"generatePerformance","inputs":[{"name":"validator","type":"address","internalType":"address"}],"outputs":[{"name":"","type":"bool","internalType":"bool"}],"stateMutability":"nonpayable"},{"type":"function","name":"getAuthorizedOracleAt","inputs":[{"name":"index","type":"uint256","internalType":"uint256"}],"outputs":[{"name":"","type":"address","internalType":"address"}],"stateMutability":"view"},{"type":"function","name":"getAuthorizedOracleCount","inputs":[],"outputs":[{"name":"","type":"uint256","internalType":"uint256"}],"stateMutability":"view"},{"type":"function","name":"getAuthorizedOracles","inputs":[],"outputs":[{"name":"","type":"address[]","internalType":"address[]"}],"stateMutability":"view"},{"type":"function","name":"getRoleAdmin","inputs":[{"name":"role","type":"bytes32","internalType":"bytes32"}],"outputs":[{"name":"","type":"bytes32","internalType":"bytes32"}],"stateMutability":"view"},{"type":"function","name":"getRoleMember","inputs":[{"name":"role","type":"bytes32","internalType":"bytes32"},{"name":"index","type":"uint256","internalType":"uint256"}],"outputs":[{"name":"","type":"address","internalType":"address"}],"stateMutability":"view"},{"type":"function","name":"getRoleMemberCount","inputs":[{"name":"role","type":"bytes32","internalType":"bytes32"}],"outputs":[{"name":"","type":"uint256","internalType":"uint256"}],"stateMutability":"view"},{"type":"function","name":"getRoleMembers","inputs":[{"name":"role","type":"bytes32","internalType":"bytes32"}],"outputs":[{"name":"","type":"address[]","internalType":"address[]"}],"stateMutability":"view"},{"type":"function","name":"grantRole","inputs":[{"name":"role","type":"bytes32","internalType":"bytes32"},{"name":"account","type":"address","internalType":"address"}],"outputs":[],"stateMutability":"nonpayable"},{"type":"function","name":"hasRole","inputs":[{"name":"role","type":"bytes32","internalType":"bytes32"},{"name":"account","type":"address","internalType":"address"}],"outputs":[{"name":"","type":"bool","internalType":"bool"}],"stateMutability":"view"},{"type":"function","name":"initialize","inputs":[{"name":"admin","type":"address","internalType":"address"},{"name":"operator","type":"address","internalType":"address"},{"name":"manager","type":"address","internalType":"address"},{"name":"_pauserRegistry","type":"address","internalType":"address"},{"name":"_validatorManager","type":"address","internalType":"address"},{"name":"_maxPerformanceBound","type":"uint256","internalType":"uint256"}],"outputs":[],"stateMutability":"nonpayable"},{"type":"function","name":"isActiveOracle","inputs":[{"name":"adapter","type":"address","internalType":"address"}],"outputs":[{"name":"","type":"bool","internalType":"bool"}],"stateMutability":"view"},{"type":"function","name":"isAuthorizedOracle","inputs":[{"name":"adapter","type":"address","internalType":"address"}],"outputs":[{"name":"","type":"bool","internalType":"bool"}],"stateMutability":"view"},{"type":"function","name":"lastValidatorUpdate","inputs":[{"name":"","type":"address","internalType":"address"}],"outputs":[{"name":"","type":"uint256","internalType":"uint256"}],"stateMutability":"view"},{"type":"function","name":"maxPerformanceBound","inputs":[],"outputs":[{"name":"","type":"uint256","internalType":"uint256"}],"stateMutability":"view"},{"type":"function","name":"pauserRegistry","inputs":[],"outputs":[{"name":"","type":"address","internalType":"contract IPauserRegistry"}],"stateMutability":"view"},{"type":"function","name":"renounceRole","inputs":[{"name":"role","type":"bytes32","internalType":"bytes32"},{"name":"callerConfirmation","type":"address","internalType":"address"}],"outputs":[],"stateMutability":"nonpayable"},{"type":"function","name":"revokeRole","inputs":[{"name":"role","type":"bytes32","internalType":"bytes32"},{"name":"account","type":"address","internalType":"address"}],"outputs":[],"stateMutability":"nonpayable"},{"type":"function","name":"sanityChecker","inputs":[],"outputs":[{"name":"","type":"address","internalType":"contract IValidatorSanityChecker"}],"stateMutability":"view"},{"type":"function","name":"setMaxOracleStaleness","inputs":[{"name":"newStaleness","type":"uint256","internalType":"uint256"}],"outputs":[],"stateMutability":"nonpayable"},{"type":"function","name":"setMaxPerformanceBound","inputs":[{"name":"newBound","type":"uint256","internalType":"uint256"}],"outputs":[],"stateMutability":"nonpayable"},{"type":"function","name":"setMinUpdateInterval","inputs":[{"name":"newInterval","type":"uint256","internalType":"uint256"}],"outputs":[],"stateMutability":"nonpayable"},{"type":"function","name":"setMinValidOracles","inputs":[{"name":"newMinimum","type":"uint256","internalType":"uint256"}],"outputs":[],"stateMutability":"nonpayable"},{"type":"function","name":"setOracleActive","inputs":[{"name":"adapter","type":"address","internalType":"address"},{"name":"active","type":"bool","internalType":"bool"}],"outputs":[],"stateMutability":"nonpayable"},{"type":"function","name":"setSanityChecker","inputs":[{"name":"newChecker","type":"address","internalType":"address"}],"outputs":[],"stateMutability":"nonpayable"},{"type":"function","name":"supportsInterface","inputs":[{"name":"interfaceId","type":"bytes4","internalType":"bytes4"}],"outputs":[{"name":"","type":"bool","internalType":"bool"}],"stateMutability":"view"},{"type":"function","name":"validatorManager","inputs":[],"outputs":[{"name":"","type":"address","internalType":"contract IValidatorManager"}],"stateMutability":"view"},{"type":"event","name":"Initialized","inputs":[{"name":"version","type":"uint64","indexed":false,"internalType":"uint64"}],"anonymous":false},{"type":"event","name":"MaxOracleStalenessUpdated","inputs":[{"name":"","type":"uint256","indexed":false,"internalType":"uint256"}],"anonymous":false},{"type":"event","name":"MaxPerformanceBoundUpdated","inputs":[{"name":"newBound","type":"uint256","indexed":false,"internalType":"uint256"}],"anonymous":false},{"type":"event","name":"MinValidOraclesUpdated","inputs":[{"name":"newMinimum","type":"uint256","indexed":false,"internalType":"uint256"}],"anonymous":false},{"type":"event","name":"OracleActiveStateChanged","inputs":[{"name":"oracle","type":"address","indexed":true,"internalType":"address"},{"name":"active","type":"bool","indexed":false,"internalType":"bool"}],"anonymous":false},{"type":"event","name":"OracleAuthorized","inputs":[{"name":"oracle","type":"address","indexed":true,"internalType":"address"}],"anonymous":false},{"type":"event","name":"OracleDataStale","inputs":[{"name":"oracle","type":"address","indexed":true,"internalType":"address"},{"name":"validator","type":"address","indexed":true,"internalType":"address"},{"name":"timestamp","type":"uint256","indexed":false,"internalType":"uint256"},{"name":"currentTime","type":"uint256","indexed":false,"internalType":"uint256"}],"anonymous":false},{"type":"event","name":"OracleDeauthorized","inputs":[{"name":"oracle","type":"address","indexed":true,"internalType":"address"}],"anonymous":false},{"type":"event","name":"PerformanceUpdated","inputs":[{"name":"validator","type":"address","indexed":true,"internalType":"address"},{"name":"timestamp","type":"uint256","indexed":false,"internalType":"uint256"}],"anonymous":false},{"type":"event","name":"RoleAdminChanged","inputs":[{"name":"role","type":"bytes32","indexed":true,"internalType":"bytes32"},{"name":"previousAdminRole","type":"bytes32","indexed":true,"internalType":"bytes32"},{"name":"newAdminRole","type":"bytes32","indexed":true,"internalType":"bytes32"}],"anonymous":false},{"type":"event","name":"RoleGranted","inputs":[{"name":"role","type":"bytes32","indexed":true,"internalType":"bytes32"},{"name":"account","type":"address","indexed":true,"internalType":"address"},{"name":"sender","type":"address","indexed":true,"internalType":"address"}],"anonymous":false},{"type":"event","name":"RoleRevoked","inputs":[{"name":"role","type":"bytes32","indexed":true,"internalType":"bytes32"},{"name":"account","type":"address","indexed":true,"internalType":"address"},{"name":"sender","type":"address","indexed":true,"internalType":"address"}],"anonymous":false},{"type":"event","name":"SanityCheckerUpdated","inputs":[{"name":"newChecker","type":"address","indexed":true,"internalType":"address"}],"anonymous":false},{"type":"event","name":"ValidatorBehaviorCheckFailed","inputs":[{"name":"validator","type":"address","indexed":true,"internalType":"address"},{"name":"reason","type":"string","indexed":false,"internalType":"string"}],"anonymous":false},{"type":"error","name":"AccessControlBadConfirmation","inputs":[]},{"type":"error","name":"AccessControlUnauthorizedAccount","inputs":[{"name":"account","type":"address","internalType":"address"},{"name":"neededRole","type":"bytes32","internalType":"bytes32"}]},{"type":"error","name":"InvalidInitialization","inputs":[]},{"type":"error","name":"NotInitializing","inputs":[]}],"bytecode":{"object":"0x6080806040523460d0577ff0c57e16840df040f15088dc2f81fe391c3923bec73e23a9662efc9c229c6a005460ff8160401c1660c1576002600160401b03196001600160401b03821601605c575b60405161256290816100d58239f35b6001600160401b0319166001600160401b039081177ff0c57e16840df040f15088dc2f81fe391c3923bec73e23a9662efc9c229c6a005581527fc7f505b2f371ae2175ee4913f4499e1f2633a7b5936321eed1cdaeb6115181d290602090a15f80604d565b63f92ee8a960e01b5f5260045ffd5b5f80fdfe610120806040526004361015610013575f80fd5b5f3560e01c90816301ffc9a71461123057508063041f49931461117b578063054a44711461115d5780631127b54314610f99578063248a9ca314610f735780632f2ff15d14610f4257806336568abe14610efe5780633ae9b8f114610e9d578063459d4be214610dfb5780634e14a58314610d9c5780635b57e9eb14610c4e5780635dc565c214610c315780636e138c8414610bbd5780637c44defc14610ba0578063886f119514610b795780638b89d7f314610b5c5780638c9d41ce14610ac45780639010d07c14610a7357806391d1485414610a1e57806392a60e871461097357806395b6ef0c1461057b578063a217fddf14610561578063a2a9c3f01461046a578063a3246ad3146103ea578063ae39467a14610362578063bd3be27c14610345578063bfe609da14610303578063ca15c873146102cd578063cf669bd1146102a5578063d547741f1461026d578063da9df73814610235578063ec87621c1461020e578063efe4c4c5146101f1578063f5b541a6146101ca5763fe55bde91461019e575f80fd5b346101c6575f3660031901126101c6576001546040516001600160a01b039091168152602090f35b5f80fd5b346101c6575f3660031901126101c65760206040515f805160206124cd8339815191528152f35b346101c6575f3660031901126101c6576020600654604051908152f35b346101c6575f3660031901126101c65760206040515f805160206124ad8339815191528152f35b346101c65760203660031901126101c6576001600160a01b0361025661129d565b165f526007602052602060405f2054604051908152f35b346101c65760403660031901126101c6576102a360043561028c6112b3565b9061029e61029982611d4f565b611e25565b611eb1565b005b346101c6575f3660031901126101c6576002546040516001600160a01b039091168152602090f35b346101c65760203660031901126101c6576004355f525f8051602061248d833981519152602052602060405f2054604051908152f35b346101c65760203660031901126101c657602061033b6001600160a01b0361032961129d565b165f52600960205260405f2054151590565b6040519015158152f35b346101c6575f3660031901126101c6576020600454604051908152f35b346101c65760203660031901126101c65760043561037e611d6d565b80156103b5576020817f9a9669257d8f89edd2af2c0870a081f18b0e8f3e7dd8c5354b66a4d6f037faca92600355604051908152a1005b60405162461bcd60e51b815260206004820152600d60248201526c125b9d985b1a5908189bdd5b99609a1b6044820152606490fd5b346101c65760203660031901126101c6576004355f525f8051602061248d83398151915260205260405f206040519081602082549182815201915f5260205f20905f5b81811061045457610450856104448187038261130b565b604051918291826112c9565b0390f35b825484526020909301926001928301920161042d565b346101c65760203660031901126101c65761048361129d565b5f54604051635b14f18360e01b815230600482015290602090829060249082906001600160a01b03165afa8015610556575f9061051b575b6104c691501561134e565b6104ce611dc9565b6001600160a01b03166104e0816122fc565b50805f52600a60205260405f2060ff1981541690557fd9208accea6cedc894d1ffe2d3793fa9285afc1e08473d1adfcad86b26deadbd5f80a2005b506020813d60201161054e575b816105356020938361130b565b810103126101c6576105496104c691611341565b6104bb565b3d9150610528565b6040513d5f823e3d90fd5b346101c6575f3660031901126101c65760206040515f8152f35b346101c65760c03660031901126101c65761059461129d565b61059c6112b3565b90604435906001600160a01b0382168083036101c6576064356001600160a01b03811691908290036101c6576084356001600160a01b03811693908490036101c65760a435945f8051602061250d833981519152549660ff8860401c16159767ffffffffffffffff81168015908161096b575b6001149081610961575b159081610958575b506109495767ffffffffffffffff1981166001175f8051602061250d833981519152558861091d575b5060ff5f8051602061250d8339815191525460401c161561090e5784156108c957851561088457861561083f578261068461069e94611ff2565b6107f1575b5061069381612089565b610796575b5061212f565b610744575b506bffffffffffffffffffffffff60a01b5f5416175f556bffffffffffffffffffffffff60a01b600154161760015560035562015180600455610e1060055560016006556106ed57005b68ff0000000000000000195f8051602061250d83398151915254165f8051602061250d833981519152557fc7f505b2f371ae2175ee4913f4499e1f2633a7b5936321eed1cdaeb6115181d2602060405160018152a1005b5f805160206124ad8339815191525f525f8051602061248d83398151915260205261078f907f4100344b6aa56dacd4c22fd3b2e50ba7459cdb2cf0a0bdb443a7a9a08e239af6611f9f565b50846106a3565b5f805160206124cd8339815191525f525f8051602061248d8339815191526020526107ea906001600160a01b03167f7359f21550028cf936ad73cd9e71366316d347a092c8f618b5c5a3efa6bec1ef611f9f565b5087610698565b5f80525f8051602061248d833981519152602052610838906001600160a01b03167f615f0f9e84155bea8cc509fe18befeb1baf65611e38a6ba60964480fb29dfd44611f9f565b5088610689565b60405162461bcd60e51b815260206004820152601d60248201527f496e76616c6964206d617820706572666f726d616e636520626f756e640000006044820152606490fd5b60405162461bcd60e51b815260206004820152601960248201527f496e76616c69642076616c696461746f72206d616e61676572000000000000006044820152606490fd5b60405162461bcd60e51b815260206004820152601760248201527f496e76616c6964207061757365722072656769737472790000000000000000006044820152606490fd5b631afcd79f60e31b5f5260045ffd5b68ffffffffffffffffff191668010000000000000001175f8051602061250d833981519152558861064a565b63f92ee8a960e01b5f5260045ffd5b9050158a610621565b303b159150610619565b8a915061060f565b346101c65760203660031901126101c65761098c61129d565b335f9081527fb7db2dd08fcb62d0c9e08c51941cae53c267786a0b75803fb7960902fc8ef97d602052604090205460ff1615610a0757600280546001600160a01b0319166001600160a01b039290921691821790557fbd6528a9f5ffb8924396f9fd16e7464a37e0457d49d171eb937195f55ed157b25f80a2005b63e2517d3f60e01b5f52336004525f60245260445ffd5b346101c65760403660031901126101c657610a376112b3565b6004355f525f805160206124ed83398151915260205260405f209060018060a01b03165f52602052602060ff60405f2054166040519015158152f35b346101c65760403660031901126101c6576004355f525f8051602061248d8339815191526020526020610aab60243560405f20611f1f565b905460405160039290921b1c6001600160a01b03168152f35b346101c65760203660031901126101c657600435610ae0611dc9565b8015610b17576020817ffcc0e600be0adc90f1d8e7eb8b988819b706b3d103b28f82471d9d3df973a7d292600555604051908152a1005b60405162461bcd60e51b815260206004820152601860248201527f496e76616c6964207374616c656e65737320706572696f6400000000000000006044820152606490fd5b346101c6575f3660031901126101c6576020600354604051908152f35b346101c6575f3660031901126101c6575f546040516001600160a01b039091168152602090f35b346101c6575f3660031901126101c6576020600854604051908152f35b346101c6575f3660031901126101c65760405180602060085491828152019060085f527ff3f7a9fe364faab93b216da50a3214154f22a0a2b415b23a84c8169e8b636ee3905f5b818110610c1b57610450856104448187038261130b565b8254845260209093019260019283019201610c04565b346101c6575f3660031901126101c6576020600554604051908152f35b346101c65760403660031901126101c657610c6761129d565b602435908115158092036101c6575f54604051635b14f18360e01b815230600482015290602090829060249082906001600160a01b03165afa8015610556575f90610d61575b610cb891501561134e565b610cc0611dc9565b6001600160a01b03165f8181526009602052604090205490919015610d245760207ff2358e9908a9fbb54887e6667e3ef0ce5f517436cfc0589383945e89c69685cf91835f52600a825260405f2060ff1981541660ff8316179055604051908152a2005b60405162461bcd60e51b815260206004820152601560248201527413dc9858db19481b9bdd08185d5d1a1bdc9a5e9959605a1b6044820152606490fd5b506020813d602011610d94575b81610d7b6020938361130b565b810103126101c657610d8f610cb891611341565b610cad565b3d9150610d6e565b346101c65760203660031901126101c657600435610db8611dc9565b8015610dc357600455005b60405162461bcd60e51b815260206004820152601060248201526f125b9d985b1a59081a5b9d195c9d985b60821b6044820152606490fd5b346101c65760203660031901126101c657600435610e17611dc9565b8015610e4e576020817f51eed4c6b2994c20888020ae53a11cdc6ad201d14f44a78144667497248d4be792600655604051908152a1005b60405162461bcd60e51b815260206004820152602160248201527f4d696e696d756d206d7573742062652067726561746572207468616e207a65726044820152606f60f81b6064820152608490fd5b346101c65760203660031901126101c6576001600160a01b03610ebe61129d565b16610ed4815f52600960205260405f2054151590565b80610ee7575b6020906040519015158152f35b505f52600a602052602060ff60405f205416610eda565b346101c65760403660031901126101c657610f176112b3565b336001600160a01b03821603610f33576102a390600435611eb1565b63334bd91960e11b5f5260045ffd5b346101c65760403660031901126101c6576102a3600435610f616112b3565b90610f6e61029982611d4f565b611e6b565b346101c65760203660031901126101c6576020610f91600435611d4f565b604051908152f35b346101c65760203660031901126101c657610fb261129d565b5f54604051635b14f18360e01b815230600482015290602090829060249082906001600160a01b03165afa8015610556575f90611122575b610ff591501561134e565b610ffd611dc9565b6001600160a01b031680156110e4576040516301ffc9a760e01b8152634d33c05b60e01b6004820152602081602481855afa908115610556575f916110aa575b50156110735761104c81611f34565b507f5a7a3f71a35f5e2589980d29d1c6d8c75e39657751190874081e55208bae24b75f80a2005b60405162461bcd60e51b815260206004820152600f60248201526e24b73b30b634b21030b230b83a32b960891b6044820152606490fd5b90506020813d6020116110dc575b816110c56020938361130b565b810103126101c6576110d690611341565b8261103d565b3d91506110b8565b60405162461bcd60e51b8152602060048201526016602482015275496e76616c6964206f7261636c65206164647265737360501b6044820152606490fd5b506020813d602011611155575b8161113c6020938361130b565b810103126101c657611150610ff591611341565b610fea565b3d915061112f565b346101c65760203660031901126101c6576020610aab600435611ef3565b346101c65760203660031901126101c65761119461129d565b5f54604051635b14f18360e01b815230600482015290602090829060249082906001600160a01b03165afa908115610556575f916111ea575b602061033b846111dd851561134e565b6111e5611d6d565b6113db565b90506020813d602011611228575b816112056020938361130b565b810103126101c6576020916111dd61121f61033b93611341565b925050916111cd565b3d91506111f8565b346101c65760203660031901126101c6576004359063ffffffff60e01b82168092036101c657602091635a05180f60e01b8114908115611272575b5015158152f35b637965db0b60e01b81149150811561128c575b508361126b565b6301ffc9a760e01b14905083611285565b600435906001600160a01b03821682036101c657565b602435906001600160a01b03821682036101c657565b60206040818301928281528451809452019201905f5b8181106112ec5750505090565b82516001600160a01b03168452602093840193909201916001016112df565b90601f8019910116810190811067ffffffffffffffff82111761132d57604052565b634e487b7160e01b5f52604160045260245ffd5b519081151582036101c657565b1561135557565b60405162461bcd60e51b815260206004820152601260248201527110dbdb9d1c9858dd081a5cc81c185d5cd95960721b6044820152606490fd5b9190820180921161139c57565b634e487b7160e01b5f52601160045260245ffd5b81156113ba570490565b634e487b7160e01b5f52601260045260245ffd5b9190820391821161139c57565b610100525f60c05260018060a01b0361010051165f52600760205261140760405f20546004549061138f565b4210611d0057610100516001600160a01b031615611cbb57600154604051638f50bd1360e01b8152610100516001600160a01b03908116600483015290911690602081602481855afa908115610556575f91611c81575b50611c3c57600854908115611bff575f60a081905260e08190529182918291829182918290815b8181106119c657505060065460e05110611981576114c36114b96114af6114cd9360e051906113b0565b9760e051906113b0565b9460e051906113b0565b9260e051906113b0565b926114f66114ec6114e260e05160a0516113b0565b9860e051906113b0565b9560e051906113b0565b60405163da13ffbf60e01b8152610100516001600160a01b0316600482015290979096602088602481875afa978815610556575f9861194d575b506040516358c22e2b60e11b8152610100516001600160a01b0316600482015295602087602481885afa968715610556575f97611919575b5060206080819052604051600191611580908261130b565b5f81526002549091906001600160a01b031680611802575b501561178c5750843b156101c6575f9460c49386926040519889978896637e78936b60e11b885260018060a01b0361010051166004890152602488015260448701526064860152608485015260a48401525af1801561055657611778575b508082116116f9575b5050808211611667575b505060018060a01b03610100511660c0515260076080515242604060c05120556040514281527f8867389dc1217dc31266587124e2684cf763acfe0b8d061deeef403db9214ed560018060a01b0361010051169160805190a2600190565b611670916113ce565b6001546001600160a01b031690813b156116e657604051630df3a5ab60e21b815260c08051610100516001600160a01b03166004840152602483019390935251909283916044918391905af180156116ec576116cd575b80611609565b60c0516116d99161130b565b60c0516116e6575f6116c7565b60c05180fd5b6040513d60c051823e3d90fd5b611702916113ce565b6001546001600160a01b031690813b156116e65760405163825b747760e01b815260c08051610100516001600160a01b03166004840152602483019390935251909283916044918391905af180156116ec5761175f575b806115ff565b60c05161176b9161130b565b60c0516116e6575f611759565b5f6117829161130b565b5f60c0525f6115f6565b99505050505050505050507f8b284957090bffc4d1cc68574f4d698658846728f929fde0ff64f9efae5779a96040516080518152825180938160805184015260805101604083015e5f818401604090810191909152610100516001600160a01b031693601f01601f191682018290030190a25f90565b9150505f8b610104604051809481936384ad047560e01b835260018060a01b036101005116600484015288602484015260448301528d60648301528960848301528b60a48301528660c48301528860e48301525afa8015610556575f915f9161186e575b50905f611598565b9150503d90815f823e611881828261130b565b60408183810103126101c65761189681611341565b9060805181015167ffffffffffffffff81116101c657838201601f8284010112156101c657808201519067ffffffffffffffff821161132d57608051601f19601f84011601946118e9604051968761130b565b8286528301608051838386010101116101c6576080515f9383920181019086015e6080519084010152905f611866565b9096506020813d602011611945575b816119356020938361130b565b810103126101c65751955f611568565b3d9150611928565b9097506020813d602011611979575b816119696020938361130b565b810103126101c65751965f611530565b3d915061195c565b60405162461bcd60e51b815260206004820152601a60248201527f496e73756666696369656e742076616c6964206f7261636c65730000000000006044820152606490fd5b6119cf81611ef3565b905460039190911b1c6001600160a01b03165f818152600a602052604090205460ff1615611bf557604051631ecc9aaf60e01b815261010080516001600160a01b0316600483015290919082602481845afa5f905f80935f935f935f92815f995f93611b87575b50611a50575b505050505050505050600101905b90611485565b611a5c6005548361138f565b4211611b28575050600354808411159081611b1d575b81611b12575b81611b07575b50611a8b575b8080611a3c565b959e95611aa391959e92999d979d9c939b949c61138f565b97611aad9161138f565b9b611ab79161138f565b98611ac19161138f565b9660a05190611acf9161138f565b60a052611adb9161138f565b98611ae59161138f565b955f1960e0511461139c576001908160e0510160e052905f8080808080611a84565b90508411155f611a7e565b808711159150611a78565b808811159150611a72565b9550955050505050600193925081611b44575b50500190611a4a565b6040519182524260208301527fb66e551c1dc1f06e6230894c4d161a7dc41eee0ea62d9d018efdb869eb26a3ec6040858060a01b03610100511693a35f80611b3b565b9850965097505050505050610100823d8211611bed575b81611bac610100938361130b565b810103126101c6578151602083015160408401516060850151608086015160a087015160c088015160e090980151979893979296919590939092915f611a36565b3d9150611b9e565b5060010190611a4a565b60405162461bcd60e51b8152602060048201526015602482015274139bc81bdc9858db195cc8185d5d1a1bdc9a5e9959605a1b6044820152606490fd5b60405162461bcd60e51b815260206004820152601f60248201527f56616c696461746f72206861732070656e64696e6720726562616c616e6365006044820152606490fd5b90506020813d602011611cb3575b81611c9c6020938361130b565b810103126101c657611cad90611341565b5f61145e565b3d9150611c8f565b60405162461bcd60e51b815260206004820152601960248201527f496e76616c69642076616c696461746f722061646472657373000000000000006044820152606490fd5b60405162461bcd60e51b815260206004820152602160248201527f55706461746520746f6f206672657175656e7420666f722076616c696461746f6044820152603960f91b6064820152608490fd5b5f525f805160206124ed833981519152602052600160405f20015490565b335f9081527f448256db8f8fb95ee3eaaf89c1051414494e85cebb6057fcf996cc3d0ccfb456602052604090205460ff1615611da557565b63e2517d3f60e01b5f52336004525f805160206124cd83398151915260245260445ffd5b335f9081527f06484cc59dc38e4f67c31122333a17ca81b3ca18cdf02bfc298072fa52b0316a602052604090205460ff1615611e0157565b63e2517d3f60e01b5f52336004525f805160206124ad83398151915260245260445ffd5b5f8181525f805160206124ed8339815191526020908152604080832033845290915290205460ff1615611e555750565b63e2517d3f60e01b5f523360045260245260445ffd5b611e7582826121d5565b9182611e8057505090565b5f9182525f8051602061248d8339815191526020526040909120611ead916001600160a01b031690611f9f565b5090565b611ebb8282612260565b9182611ec657505090565b5f9182525f8051602061248d8339815191526020526040909120611ead916001600160a01b0316906123bb565b600854811015611f0b5760085f5260205f2001905f90565b634e487b7160e01b5f52603260045260245ffd5b8054821015611f0b575f5260205f2001905f90565b805f52600960205260405f2054155f14611f9a57600854600160401b81101561132d57611f83611f6d8260018594016008556008611f1f565b819391549060031b91821b915f19901b19161790565b9055600854905f52600960205260405f2055600190565b505f90565b5f828152600182016020526040902054611fec57805490600160401b82101561132d5782611fd7611f6d846001809601855584611f1f565b90558054925f520160205260405f2055600190565b50505f90565b6001600160a01b0381165f9081527fb7db2dd08fcb62d0c9e08c51941cae53c267786a0b75803fb7960902fc8ef97d602052604090205460ff16611f9a576001600160a01b03165f8181527fb7db2dd08fcb62d0c9e08c51941cae53c267786a0b75803fb7960902fc8ef97d60205260408120805460ff191660011790553391905f8051602061246d8339815191528180a4600190565b6001600160a01b0381165f9081527f448256db8f8fb95ee3eaaf89c1051414494e85cebb6057fcf996cc3d0ccfb456602052604090205460ff16611f9a576001600160a01b03165f8181527f448256db8f8fb95ee3eaaf89c1051414494e85cebb6057fcf996cc3d0ccfb45660205260408120805460ff191660011790553391905f805160206124cd833981519152905f8051602061246d8339815191529080a4600190565b6001600160a01b0381165f9081527f06484cc59dc38e4f67c31122333a17ca81b3ca18cdf02bfc298072fa52b0316a602052604090205460ff16611f9a576001600160a01b03165f8181527f06484cc59dc38e4f67c31122333a17ca81b3ca18cdf02bfc298072fa52b0316a60205260408120805460ff191660011790553391905f805160206124ad833981519152905f8051602061246d8339815191529080a4600190565b5f8181525f805160206124ed833981519152602090815260408083206001600160a01b038616845290915290205460ff16611fec575f8181525f805160206124ed833981519152602090815260408083206001600160a01b0395909516808452949091528120805460ff19166001179055339291905f8051602061246d8339815191529080a4600190565b5f8181525f805160206124ed833981519152602090815260408083206001600160a01b038616845290915290205460ff1615611fec575f8181525f805160206124ed833981519152602090815260408083206001600160a01b0395909516808452949091528120805460ff19169055339291907ff6391f5c32d9c69d2a47ea670b442974b53935d1edc7fd64eb21e047a839171b9080a4600190565b5f818152600960205260409020548015611fec575f19810181811161139c576008545f1981019190821161139c57818103612383575b505050600854801561236f575f190161234c816008611f1f565b8154905f199060031b1b191690556008555f5260096020525f6040812055600190565b634e487b7160e01b5f52603160045260245ffd5b6123a5612394611f6d936008611f1f565b90549060031b1c9283926008611f1f565b90555f52600960205260405f20555f8080612332565b906001820191815f528260205260405f20548015155f14612464575f19810181811161139c5782545f1981019190821161139c5781810361242f575b5050508054801561236f575f1901906124108282611f1f565b8154905f199060031b1b19169055555f526020525f6040812055600190565b61244f61243f611f6d9386611f1f565b90549060031b1c92839286611f1f565b90555f528360205260405f20555f80806123f7565b505050505f9056fe2f8788117e7eff1d82e926ec794901d17c78024a50270940304540a733656f0dc1f6fe24621ce81ec5827caf0253cadb74709b061630e6b55e82371705932000241ecf16d79d0f8dbfb92cbc07fe17840425976cf0667f022fe9877caa831b0897667070c54ef182b0f5858b034beac1b6f3089aa2d3188bb1e8929f4fa9b92902dd7bc7dec4dceedda775e58dd541e08a116c6c53815c0bd028192f7b626800f0c57e16840df040f15088dc2f81fe391c3923bec73e23a9662efc9c229c6a00a26469706673582212207ee7d6b9cb017fa992cc9f3af9b223df120672df6edc14e6f89b19c2ef01752d64736f6c634300081a0033","linkReferences":{}},"methodIdentifiers":{"DEFAULT_ADMIN_ROLE()":"a217fddf","MANAGER_ROLE()":"ec87621c","MAX_ORACLE_STALENESS()":"5dc565c2","MIN_UPDATE_INTERVAL()":"bd3be27c","MIN_VALID_ORACLES()":"efe4c4c5","OPERATOR_ROLE()":"f5b541a6","authorizeOracleAdapter(address)":"1127b543","deauthorizeOracle(address)":"a2a9c3f0","generatePerformance(address)":"041f4993","getAuthorizedOracleAt(uint256)":"054a4471","getAuthorizedOracleCount()":"7c44defc","getAuthorizedOracles()":"6e138c84","getRoleAdmin(bytes32)":"248a9ca3","getRoleMember(bytes32,uint256)":"9010d07c","getRoleMemberCount(bytes32)":"ca15c873","getRoleMembers(bytes32)":"a3246ad3","grantRole(bytes32,address)":"2f2ff15d","hasRole(bytes32,address)":"91d14854","initialize(address,address,address,address,address,uint256)":"95b6ef0c","isActiveOracle(address)":"3ae9b8f1","isAuthorizedOracle(address)":"bfe609da","lastValidatorUpdate(address)":"da9df738","maxPerformanceBound()":"8b89d7f3","pauserRegistry()":"886f1195","renounceRole(bytes32,address)":"36568abe","revokeRole(bytes32,address)":"d547741f","sanityChecker()":"cf669bd1","setMaxOracleStaleness(uint256)":"8c9d41ce","setMaxPerformanceBound(uint256)":"ae39467a","setMinUpdateInterval(uint256)":"4e14a583","setMinValidOracles(uint256)":"459d4be2","setOracleActive(address,bool)":"5b57e9eb","setSanityChecker(address)":"92a60e87","supportsInterface(bytes4)":"01ffc9a7","validatorManager()":"fe55bde9"},"id":84}