{"abi":[{"type":"constructor","inputs":[],"stateMutability":"nonpayable"},{"type":"function","name":"BASIS_POINTS","inputs":[],"outputs":[{"name":"","type":"uint256","internalType":"uint256"}],"stateMutability":"view"},{"type":"function","name":"DEFAULT_ADMIN_ROLE","inputs":[],"outputs":[{"name":"","type":"bytes32","internalType":"bytes32"}],"stateMutability":"view"},{"type":"function","name":"MANAGER_ROLE","inputs":[],"outputs":[{"name":"","type":"bytes32","internalType":"bytes32"}],"stateMutability":"view"},{"type":"function","name":"ORACLE_MANAGER_ROLE","inputs":[],"outputs":[{"name":"","type":"bytes32","internalType":"bytes32"}],"stateMutability":"view"},{"type":"function","name":"activateValidator","inputs":[{"name":"validator","type":"address","internalType":"address"}],"outputs":[],"stateMutability":"nonpayable"},{"type":"function","name":"activeValidatorsCount","inputs":[],"outputs":[{"name":"","type":"uint256","internalType":"uint256"}],"stateMutability":"view"},{"type":"function","name":"closeRebalanceRequests","inputs":[{"name":"stakingManager","type":"address","internalType":"address"},{"name":"validators","type":"address[]","internalType":"address[]"}],"outputs":[],"stateMutability":"nonpayable"},{"type":"function","name":"deactivateValidator","inputs":[{"name":"validator","type":"address","internalType":"address"}],"outputs":[],"stateMutability":"nonpayable"},{"type":"function","name":"delegations","inputs":[{"name":"","type":"address","internalType":"address"}],"outputs":[{"name":"","type":"address","internalType":"address"}],"stateMutability":"view"},{"type":"function","name":"getDelegation","inputs":[{"name":"stakingManager","type":"address","internalType":"address"}],"outputs":[{"name":"","type":"address","internalType":"address"}],"stateMutability":"view"},{"type":"function","name":"getRoleAdmin","inputs":[{"name":"role","type":"bytes32","internalType":"bytes32"}],"outputs":[{"name":"","type":"bytes32","internalType":"bytes32"}],"stateMutability":"view"},{"type":"function","name":"getRoleMember","inputs":[{"name":"role","type":"bytes32","internalType":"bytes32"},{"name":"index","type":"uint256","internalType":"uint256"}],"outputs":[{"name":"","type":"address","internalType":"address"}],"stateMutability":"view"},{"type":"function","name":"getRoleMemberCount","inputs":[{"name":"role","type":"bytes32","internalType":"bytes32"}],"outputs":[{"name":"","type":"uint256","internalType":"uint256"}],"stateMutability":"view"},{"type":"function","name":"getRoleMembers","inputs":[{"name":"role","type":"bytes32","internalType":"bytes32"}],"outputs":[{"name":"","type":"address[]","internalType":"address[]"}],"stateMutability":"view"},{"type":"function","name":"grantRole","inputs":[{"name":"role","type":"bytes32","internalType":"bytes32"},{"name":"account","type":"address","internalType":"address"}],"outputs":[],"stateMutability":"nonpayable"},{"type":"function","name":"hasPendingRebalance","inputs":[{"name":"validator","type":"address","internalType":"address"}],"outputs":[{"name":"","type":"bool","internalType":"bool"}],"stateMutability":"view"},{"type":"function","name":"hasRole","inputs":[{"name":"role","type":"bytes32","internalType":"bytes32"},{"name":"account","type":"address","internalType":"address"}],"outputs":[{"name":"","type":"bool","internalType":"bool"}],"stateMutability":"view"},{"type":"function","name":"initialize","inputs":[{"name":"admin","type":"address","internalType":"address"},{"name":"manager","type":"address","internalType":"address"},{"name":"_oracle","type":"address","internalType":"address"},{"name":"_pauserRegistry","type":"address","internalType":"address"}],"outputs":[],"stateMutability":"nonpayable"},{"type":"function","name":"pauserRegistry","inputs":[],"outputs":[{"name":"","type":"address","internalType":"contract IPauserRegistry"}],"stateMutability":"view"},{"type":"function","name":"reactivateValidator","inputs":[{"name":"validator","type":"address","internalType":"address"}],"outputs":[],"stateMutability":"nonpayable"},{"type":"function","name":"rebalanceWithdrawal","inputs":[{"name":"stakingManager","type":"address","internalType":"address"},{"name":"validators","type":"address[]","internalType":"address[]"},{"name":"withdrawalAmounts","type":"uint256[]","internalType":"uint256[]"}],"outputs":[],"stateMutability":"nonpayable"},{"type":"function","name":"renounceRole","inputs":[{"name":"role","type":"bytes32","internalType":"bytes32"},{"name":"callerConfirmation","type":"address","internalType":"address"}],"outputs":[],"stateMutability":"nonpayable"},{"type":"function","name":"reportRewardEvent","inputs":[{"name":"validator","type":"address","internalType":"address"},{"name":"amount","type":"uint256","internalType":"uint256"}],"outputs":[],"stateMutability":"nonpayable"},{"type":"function","name":"reportSlashingEvent","inputs":[{"name":"validator","type":"address","internalType":"address"},{"name":"amount","type":"uint256","internalType":"uint256"}],"outputs":[],"stateMutability":"nonpayable"},{"type":"function","name":"revokeRole","inputs":[{"name":"role","type":"bytes32","internalType":"bytes32"},{"name":"account","type":"address","internalType":"address"}],"outputs":[],"stateMutability":"nonpayable"},{"type":"function","name":"setDelegation","inputs":[{"name":"stakingManager","type":"address","internalType":"address"},{"name":"validator","type":"address","internalType":"address"}],"outputs":[],"stateMutability":"nonpayable"},{"type":"function","name":"supportsInterface","inputs":[{"name":"interfaceId","type":"bytes4","internalType":"bytes4"}],"outputs":[{"name":"","type":"bool","internalType":"bool"}],"stateMutability":"view"},{"type":"function","name":"totalRewards","inputs":[],"outputs":[{"name":"","type":"uint256","internalType":"uint256"}],"stateMutability":"view"},{"type":"function","name":"totalSlashing","inputs":[],"outputs":[{"name":"","type":"uint256","internalType":"uint256"}],"stateMutability":"view"},{"type":"function","name":"updateValidatorPerformance","inputs":[{"name":"validator","type":"address","internalType":"address"},{"name":"balance","type":"uint256","internalType":"uint256"},{"name":"uptimeScore","type":"uint256","internalType":"uint256"},{"name":"speedScore","type":"uint256","internalType":"uint256"},{"name":"integrityScore","type":"uint256","internalType":"uint256"},{"name":"selfStakeScore","type":"uint256","internalType":"uint256"}],"outputs":[],"stateMutability":"nonpayable"},{"type":"function","name":"validatorActiveState","inputs":[{"name":"validator","type":"address","internalType":"address"}],"outputs":[{"name":"","type":"bool","internalType":"bool"}],"stateMutability":"view"},{"type":"function","name":"validatorAt","inputs":[{"name":"index","type":"uint256","internalType":"uint256"}],"outputs":[{"name":"validator","type":"address","internalType":"address"},{"name":"data","type":"tuple","internalType":"struct IValidatorManager.Validator","components":[{"name":"balance","type":"uint256","internalType":"uint256"},{"name":"uptimeScore","type":"uint256","internalType":"uint256"},{"name":"speedScore","type":"uint256","internalType":"uint256"},{"name":"integrityScore","type":"uint256","internalType":"uint256"},{"name":"selfStakeScore","type":"uint256","internalType":"uint256"},{"name":"lastUpdateTime","type":"uint256","internalType":"uint256"},{"name":"active","type":"bool","internalType":"bool"}]}],"stateMutability":"view"},{"type":"function","name":"validatorBalance","inputs":[{"name":"validator","type":"address","internalType":"address"}],"outputs":[{"name":"","type":"uint256","internalType":"uint256"}],"stateMutability":"view"},{"type":"function","name":"validatorCount","inputs":[],"outputs":[{"name":"","type":"uint256","internalType":"uint256"}],"stateMutability":"view"},{"type":"function","name":"validatorInfo","inputs":[{"name":"validator","type":"address","internalType":"address"}],"outputs":[{"name":"","type":"tuple","internalType":"struct IValidatorManager.Validator","components":[{"name":"balance","type":"uint256","internalType":"uint256"},{"name":"uptimeScore","type":"uint256","internalType":"uint256"},{"name":"speedScore","type":"uint256","internalType":"uint256"},{"name":"integrityScore","type":"uint256","internalType":"uint256"},{"name":"selfStakeScore","type":"uint256","internalType":"uint256"},{"name":"lastUpdateTime","type":"uint256","internalType":"uint256"},{"name":"active","type":"bool","internalType":"bool"}]}],"stateMutability":"view"},{"type":"function","name":"validatorLastUpdateTime","inputs":[{"name":"validator","type":"address","internalType":"address"}],"outputs":[{"name":"","type":"uint256","internalType":"uint256"}],"stateMutability":"view"},{"type":"function","name":"validatorPerformance","inputs":[{"name":"","type":"address","internalType":"address"}],"outputs":[{"name":"balance","type":"uint256","internalType":"uint256"},{"name":"uptimeScore","type":"uint256","internalType":"uint256"},{"name":"speedScore","type":"uint256","internalType":"uint256"},{"name":"integrityScore","type":"uint256","internalType":"uint256"},{"name":"selfStakeScore","type":"uint256","internalType":"uint256"},{"name":"timestamp","type":"uint256","internalType":"uint256"}],"stateMutability":"view"},{"type":"function","name":"validatorRebalanceRequests","inputs":[{"name":"","type":"address","internalType":"address"}],"outputs":[{"name":"staking","type":"address","internalType":"address"},{"name":"validator","type":"address","internalType":"address"},{"name":"amount","type":"uint256","internalType":"uint256"}],"stateMutability":"view"},{"type":"function","name":"validatorRewards","inputs":[{"name":"","type":"address","internalType":"address"}],"outputs":[{"name":"","type":"uint256","internalType":"uint256"}],"stateMutability":"view"},{"type":"function","name":"validatorScores","inputs":[{"name":"validator","type":"address","internalType":"address"}],"outputs":[{"name":"uptimeScore","type":"uint256","internalType":"uint256"},{"name":"speedScore","type":"uint256","internalType":"uint256"},{"name":"integrityScore","type":"uint256","internalType":"uint256"},{"name":"selfStakeScore","type":"uint256","internalType":"uint256"}],"stateMutability":"view"},{"type":"function","name":"validatorSlashing","inputs":[{"name":"","type":"address","internalType":"address"}],"outputs":[{"name":"","type":"uint256","internalType":"uint256"}],"stateMutability":"view"},{"type":"event","name":"AllRebalanceRequestsClosed","inputs":[{"name":"count","type":"uint256","indexed":false,"internalType":"uint256"},{"name":"timestamp","type":"uint256","indexed":false,"internalType":"uint256"}],"anonymous":false},{"type":"event","name":"DelegationUpdated","inputs":[{"name":"stakingManager","type":"address","indexed":true,"internalType":"address"},{"name":"oldDelegation","type":"address","indexed":true,"internalType":"address"},{"name":"newDelegation","type":"address","indexed":true,"internalType":"address"}],"anonymous":false},{"type":"event","name":"EmergencyCooldownUpdated","inputs":[{"name":"cooldown","type":"uint256","indexed":false,"internalType":"uint256"}],"anonymous":false},{"type":"event","name":"EmergencyWithdrawalLimitUpdated","inputs":[{"name":"newLimit","type":"uint256","indexed":false,"internalType":"uint256"}],"anonymous":false},{"type":"event","name":"EmergencyWithdrawalProcessed","inputs":[{"name":"validator","type":"address","indexed":true,"internalType":"address"},{"name":"amount","type":"uint256","indexed":false,"internalType":"uint256"}],"anonymous":false},{"type":"event","name":"EmergencyWithdrawalRequested","inputs":[{"name":"validator","type":"address","indexed":true,"internalType":"address"},{"name":"amount","type":"uint256","indexed":false,"internalType":"uint256"}],"anonymous":false},{"type":"event","name":"Initialized","inputs":[{"name":"version","type":"uint64","indexed":false,"internalType":"uint64"}],"anonymous":false},{"type":"event","name":"PerformanceReportGenerated","inputs":[{"name":"validator","type":"address","indexed":true,"internalType":"address"},{"name":"timestamp","type":"uint256","indexed":false,"internalType":"uint256"}],"anonymous":false},{"type":"event","name":"RebalanceBatchProcessed","inputs":[{"name":"startIndex","type":"uint256","indexed":false,"internalType":"uint256"},{"name":"endIndex","type":"uint256","indexed":false,"internalType":"uint256"},{"name":"timestamp","type":"uint256","indexed":false,"internalType":"uint256"}],"anonymous":false},{"type":"event","name":"RebalanceCooldownUpdated","inputs":[{"name":"cooldown","type":"uint256","indexed":false,"internalType":"uint256"}],"anonymous":false},{"type":"event","name":"RebalanceRequestAdded","inputs":[{"name":"validator","type":"address","indexed":true,"internalType":"address"},{"name":"amount","type":"uint256","indexed":false,"internalType":"uint256"}],"anonymous":false},{"type":"event","name":"RebalanceRequestClosed","inputs":[{"name":"validator","type":"address","indexed":true,"internalType":"address"},{"name":"amount","type":"uint256","indexed":false,"internalType":"uint256"}],"anonymous":false},{"type":"event","name":"RewardEventReported","inputs":[{"name":"validator","type":"address","indexed":true,"internalType":"address"},{"name":"amount","type":"uint256","indexed":false,"internalType":"uint256"}],"anonymous":false},{"type":"event","name":"RoleAdminChanged","inputs":[{"name":"role","type":"bytes32","indexed":true,"internalType":"bytes32"},{"name":"previousAdminRole","type":"bytes32","indexed":true,"internalType":"bytes32"},{"name":"newAdminRole","type":"bytes32","indexed":true,"internalType":"bytes32"}],"anonymous":false},{"type":"event","name":"RoleGranted","inputs":[{"name":"role","type":"bytes32","indexed":true,"internalType":"bytes32"},{"name":"account","type":"address","indexed":true,"internalType":"address"},{"name":"sender","type":"address","indexed":true,"internalType":"address"}],"anonymous":false},{"type":"event","name":"RoleRevoked","inputs":[{"name":"role","type":"bytes32","indexed":true,"internalType":"bytes32"},{"name":"account","type":"address","indexed":true,"internalType":"address"},{"name":"sender","type":"address","indexed":true,"internalType":"address"}],"anonymous":false},{"type":"event","name":"SlashingEventReported","inputs":[{"name":"validator","type":"address","indexed":true,"internalType":"address"},{"name":"amount","type":"uint256","indexed":false,"internalType":"uint256"}],"anonymous":false},{"type":"event","name":"StakeLimitsUpdated","inputs":[{"name":"minLimit","type":"uint256","indexed":false,"internalType":"uint256"},{"name":"maxLimit","type":"uint256","indexed":false,"internalType":"uint256"}],"anonymous":false},{"type":"event","name":"StakeRebalanced","inputs":[{"name":"validator","type":"address","indexed":true,"internalType":"address"},{"name":"newStake","type":"uint256","indexed":false,"internalType":"uint256"}],"anonymous":false},{"type":"event","name":"ValidatorActivated","inputs":[{"name":"validator","type":"address","indexed":true,"internalType":"address"}],"anonymous":false},{"type":"event","name":"ValidatorAdded","inputs":[{"name":"validator","type":"address","indexed":true,"internalType":"address"}],"anonymous":false},{"type":"event","name":"ValidatorDeactivated","inputs":[{"name":"validator","type":"address","indexed":true,"internalType":"address"}],"anonymous":false},{"type":"event","name":"ValidatorPerformanceUpdated","inputs":[{"name":"validator","type":"address","indexed":true,"internalType":"address"},{"name":"timestamp","type":"uint256","indexed":false,"internalType":"uint256"},{"name":"blockNumber","type":"uint256","indexed":false,"internalType":"uint256"}],"anonymous":false},{"type":"event","name":"ValidatorReactivated","inputs":[{"name":"validator","type":"address","indexed":true,"internalType":"address"}],"anonymous":false},{"type":"event","name":"ValidatorRemoved","inputs":[{"name":"validator","type":"address","indexed":true,"internalType":"address"}],"anonymous":false},{"type":"event","name":"ValidatorScoreUpdated","inputs":[{"name":"validator","type":"address","indexed":true,"internalType":"address"},{"name":"totalScore","type":"uint256","indexed":false,"internalType":"uint256"}],"anonymous":false},{"type":"error","name":"AccessControlBadConfirmation","inputs":[]},{"type":"error","name":"AccessControlUnauthorizedAccount","inputs":[{"name":"account","type":"address","internalType":"address"},{"name":"neededRole","type":"bytes32","internalType":"bytes32"}]},{"type":"error","name":"EnumerableMapNonexistentKey","inputs":[{"name":"key","type":"bytes32","internalType":"bytes32"}]},{"type":"error","name":"InvalidInitialization","inputs":[]},{"type":"error","name":"NotInitializing","inputs":[]},{"type":"error","name":"ReentrancyGuardReentrantCall","inputs":[]}],"bytecode":{"object":"0x6080806040523460d0577ff0c57e16840df040f15088dc2f81fe391c3923bec73e23a9662efc9c229c6a005460ff8160401c1660c1576002600160401b03196001600160401b03821601605c575b604051612c9490816100d58239f35b6001600160401b0319166001600160401b039081177ff0c57e16840df040f15088dc2f81fe391c3923bec73e23a9662efc9c229c6a005581527fc7f505b2f371ae2175ee4913f4499e1f2633a7b5936321eed1cdaeb6115181d290602090a15f80604d565b63f92ee8a960e01b5f5260045ffd5b5f80fdfe6080806040526004361015610012575f80fd5b5f905f3560e01c90816301ffc9a714611f28575080630d2bd90914611ebc5780630e15561a14611e9f5780630eb9acea14611b935780630f43a67714611b75578063248a9ca314611b4e5780632b29376814611a795780632f2ff15d14611a4757806332e0aa1f1461194557806336568abe1461190057806337ce96ac1461183a5780634db69d26146118035780634f1811dd1461176657806357afa91c14611705578063631f15a9146116e15780637623a74e14611591578063825b7477146114be578063886f1195146114975780638ac7834b146114265780638e87ce2d146113f25780638f50bd13146113af5780639010d07c1461135d57806391d1485414611307578063a217fddf146112eb578063a3246ad31461122f578063aaa54e0d146110f3578063b1845c56146110ba578063b46e552014610f19578063ba50b87914610d70578063bfc69e1c14610d48578063bffe348614610d07578063ca15c87314610cd1578063d547741f14610c96578063da13ffbf14610c5d578063e1f1c4a714610c40578063e47c355b146108b9578063ec87621c14610891578063f30720d614610873578063f5a9f94a146107eb578063f8c8765e1461044d5763fcf126d6146101e1575f80fd5b3461044a5760c036600319011261044a576101fa611f95565b8154604051635b14f18360e01b815230600482015260248035949360843593606435936044359360a4359392602091839182906001600160a01b03165afa90811561043f5790610252918891610410575b50156120a8565b61025a612417565b61026b61026682612252565b6121c3565b61271083111580610404575b806103f8575b806103ec575b156103af576001600160a01b0316936102f361029e866129f1565b6102ed60ff60066102ae84611ff2565b5001541691604051926102c084612052565b8b84528760208501528860408501528560608501528660808501524260a0850152151560c0840152611ff2565b9061231c565b6040519360c085019785891067ffffffffffffffff8a111761039b5760059596979860405286526020860193845260408601908152606086019182526080860192835260a0860193428552878952856020526040892096518755516001870155516002860155516003850155516004840155519101557f5fccbb07a0dab375247a9d144c14a3db4061295b18e45d352478c9f6edb6a3c860408051428152436020820152a280f35b634e487b7160e01b88526041600452602488fd5b60405162461bcd60e51b815260206004820152601560248201527453636f72652065786365656473206d6178696d756d60581b6044820152606490fd5b50612710821115610283565b5061271085111561027d565b50612710841115610277565b610432915060203d602011610438575b61042a818361206e565b810190612090565b5f61024b565b503d610420565b6040513d89823e3d90fd5b80fd5b503461044a57608036600319011261044a57610467611f95565b61046f611fab565b90604435906001600160a01b038216908183036107e7576064356001600160a01b03811693908490036107e3575f80516020612c3f833981519152549460ff8660401c16159567ffffffffffffffff8116801590816107db575b60011490816107d1575b1590816107c8575b506107b95767ffffffffffffffff1981166001175f80516020612c3f833981519152558661078d575b506001600160a01b038316928315610750576001600160a01b03821691821561070b5785156106cd578615610688576105829461056c61057793610546612a66565b61054e612a66565b610556612a66565b60015f80516020612bff833981519152556126e2565b610660575b5061277e565b61062b575b50612824565b6105f6575b5082546001600160a01b03191617825561059e5780f35b68ff0000000000000000195f80516020612c3f83398151915254165f80516020612c3f833981519152557fc7f505b2f371ae2175ee4913f4499e1f2633a7b5936321eed1cdaeb6115181d2602060405160018152a180f35b610624905f80516020612c1f83398151915285525f80516020612b9f83398151915260205260408520612b31565b505f610587565b610659905f80516020612bbf83398151915288525f80516020612b9f83398151915260205260408820612b31565b505f61057c565b610681908a80525f80516020612b9f83398151915260205260408b20612b31565b505f610571565b60405162461bcd60e51b815260206004820152601760248201527f496e76616c6964207061757365722072656769737472790000000000000000006044820152606490fd5b60405162461bcd60e51b8152602060048201526016602482015275496e76616c6964206f7261636c65206164647265737360501b6044820152606490fd5b60405162461bcd60e51b815260206004820152601760248201527f496e76616c6964206d616e6167657220616464726573730000000000000000006044820152606490fd5b60405162461bcd60e51b8152602060048201526015602482015274496e76616c69642061646d696e206164647265737360581b6044820152606490fd5b68ffffffffffffffffff191668010000000000000001175f80516020612c3f833981519152555f610504565b63f92ee8a960e01b8852600488fd5b9050155f6104db565b303b1591506104d3565b8891506104c9565b8580fd5b8480fd5b503461044a57602036600319011261044a57608061084661084061083b6001600160a01b03610818611f95565b16610836610831825f52600a60205260405f2054151590565b612206565b6129f1565b611ff2565b5061216e565b60208101519060408101519083606082015191015191604051938452602084015260408301526060820152f35b503461044a578060031936011261044a576020600154604051908152f35b503461044a578060031936011261044a5760206040515f80516020612bbf8339815191528152f35b503461044a57606036600319011261044a576108d3611f95565b9060243567ffffffffffffffff8111610c3c576108f4903690600401611fc1565b9260443567ffffffffffffffff8111610c3857610915903690600401611fc1565b8454604051635b14f18360e01b8152306004820152919492939190602090829060249082906001600160a01b03165afa908115610c2d579061095e9187916104105750156120a8565b610966612383565b61096e6123bb565b838603610bf6578515610bc2576001600160a01b0316845b868110610a6b5750803b156107e7576040519363c2ef1d9360e01b855286604486016040600488015252606485019286975b808910610a3c57505084830360031901602486015280835294955085946001600160fb1b0381116107e3578560208682968196829560051b809285830137010301925af18015610a3157610a1c575b5060015f80516020612bff8339815191525580f35b81610a269161206e565b61044a57805f610a07565b6040513d84823e3d90fd5b909384356001600160a01b03811690819003610a6757602082819260019452019501980197906109b8565b8880fd5b610a916001600160a01b03610a89610a84848b886120e9565b6120f9565b1615156122d0565b610a9f610a848289866120e9565b90610aab8187876120e9565b359160018060a01b0316808852600d602052610acb604089205415612284565b8215610b7d577f6154de7bd286a60f27d1045c5314775291c7eaae5a4b57a2a792ec28d68eac356020600194610b09610b0385612a35565b50612206565b604051610b1581612022565b8781528281018581526040808301848152878f5260048652908e20925183546001600160a01b031990811660a08c901b8c900392831617855592518a850180549094169116179091555160029190910155610b6f84612ae1565b50604051908152a201610986565b60405162461bcd60e51b815260206004820152601960248201527f496e76616c6964207769746864726177616c20616d6f756e74000000000000006044820152606490fd5b60405162461bcd60e51b815260206004820152600c60248201526b456d7074792061727261797360a01b6044820152606490fd5b60405162461bcd60e51b815260206004820152600f60248201526e098cadccee8d040dad2e6dac2e8c6d608b1b6044820152606490fd5b6040513d88823e3d90fd5b8380fd5b5080fd5b503461044a578060031936011261044a5760206040516127108152f35b503461044a57602036600319011261044a576020906040906001600160a01b03610c85611f95565b168152600683522054604051908152f35b503461044a57604036600319011261044a57610ccd600435610cb6611fab565b90610cc8610cc38261211a565b612473565b6124ff565b5080f35b503461044a57602036600319011261044a57604060209160043581525f80516020612b9f83398151915283522054604051908152f35b503461044a57602036600319011261044a576020906001600160a01b03610d2c611f95565b16815260038252604060018060a01b0391205416604051908152f35b503461044a578060031936011261044a5760206040515f80516020612c1f8339815191528152f35b503461044a57602036600319011261044a57610d8a611f95565b8154604051635b14f18360e01b815230600482015290602090829060249082906001600160a01b03165afa8015610f0e57610dcc9184916104105750156120a8565b610dd4612383565b6001600160a01b03165f818152600a6020526040902054610df6901515612206565b5f80516020612bbf83398151915282525f80516020612bdf83398151915260209081526040808420335f908152925290205460ff1615610ed8576006610e4861083b610e4184612a35565b9190612206565b5001805460ff811615610e935760ff191690557f23d934bfe7f1275bc6fd70432159c9cc1c0075d069f89da6a40f43bfe7a94ed38280a260015f80516020612bff8339815191525580f35b60405162461bcd60e51b815260206004820152601a60248201527f56616c696461746f7220616c726561647920696e6163746976650000000000006044820152606490fd5b60405162461bcd60e51b815260206004820152600e60248201526d139bdd08185d5d1a1bdc9a5e995960921b6044820152606490fd5b6040513d85823e3d90fd5b503461044a57602036600319011261044a57610f33611f95565b8154604051635b14f18360e01b815230600482015290602090829060249082906001600160a01b03165afa8015610f0e57610f759184916104105750156120a8565b610f7d6123bb565b6001600160a01b0316610f918115156122d0565b610fa6815f52600a60205260405f2054151590565b61107557604051610fb681612052565b8281528260208201528260408201528260608201528260808201524260a0820152600160c0820152600854600160401b81101561106157906102ed8260016110019401600855611ff2565b6008545f19810190811161104d57818352600b602052604083205561102581612a91565b507fb2b8c5f713f27009f7a78ec2167999c472e5ee8bc591102da17bc4a6551236c88280a280f35b634e487b7160e01b83526011600452602483fd5b634e487b7160e01b84526041600452602484fd5b60405162461bcd60e51b815260206004820152601860248201527f56616c696461746f7220616c72656164792065786973747300000000000000006044820152606490fd5b503461044a57602036600319011261044a576020906040906001600160a01b036110e2611f95565b168152600783522054604051908152f35b503461044a57604036600319011261044a5761110d611f95565b611115611fab565b8254604051635b14f18360e01b815230600482015291929190602090829060249082906001600160a01b03165afa80156112245761115a9185916104105750156120a8565b6111626123bb565b61116e61026683612252565b6001600160a01b03169081156111df578183526003602081815260408086205485875292909152842080546001600160a01b0319166001600160a01b03938416908117909155929116907f5cbf8b4dd601c76e8851d991825e8d0d29d914f78f40fcc8ebddd97d913f149c8480a480f35b60405162461bcd60e51b815260206004820152601760248201527f496e76616c6964207374616b696e67206d616e616765720000000000000000006044820152606490fd5b6040513d86823e3d90fd5b503461044a57602036600319011261044a5760043581525f80516020612b9f83398151915260205260408120604051908160208254918281520190819285526020852090855b8181106112d5575050508261128b91038361206e565b604051928392602084019060208552518091526040840192915b8181106112b3575050500390f35b82516001600160a01b03168452859450602093840193909201916001016112a5565b8254845260209093019260019283019201611275565b503461044a578060031936011261044a57602090604051908152f35b503461044a57604036600319011261044a576040611323611fab565b9160043581525f80516020612bdf833981519152602052209060018060a01b03165f52602052602060ff60405f2054166040519015158152f35b503461044a57604036600319011261044a5761139660209160043581525f80516020612b9f833981519152835260406024359120612541565b905460405160039290921b1c6001600160a01b03168152f35b503461044a57602036600319011261044a5760206113e86001600160a01b036113d6611f95565b165f52600d60205260405f2054151590565b6040519015158152f35b503461044a57602036600319011261044a57602061141c61083b6001600160a01b03610818611f95565b5054604051908152f35b503461044a57602036600319011261044a5760c0906040906001600160a01b0361144e611f95565b16815260056020522080549060018101549060028101546003820154906005600484015493015493604051958652602086015260408501526060840152608083015260a0820152f35b503461044a578060031936011261044a57546040516001600160a01b039091168152602090f35b503461044a57604036600319011261044a576114d8611f95565b602435906114e4612417565b6114f061026682612252565b81156115545760207fd36143b3ca1520d3b9e429976a829d6bc40c6b097d16399efae03a37f310ae49916115268460025461210d565b60025560018060a01b031692838552600782526040852061154882825461210d565b9055604051908152a280f35b60405162461bcd60e51b8152602060048201526015602482015274125b9d985b1a59081c995dd85c9908185b5bdd5b9d605a1b6044820152606490fd5b503461044a57602036600319011261044a576115ab611f95565b8154604051635b14f18360e01b815230600482015290602090829060249082906001600160a01b03165afa8015610f0e576115ed9184916104105750156120a8565b6115f5612383565b6115fd6123bb565b6001600160a01b03165f818152600a602052604090205461161f901515612206565b600661163061083b610e4184612a35565b5001805460ff811661169c5760019061165d611657855f52600d60205260405f2054151590565b15612284565b60ff19161790557f65cf6d2b9cf96b1ffffa32041ec7c360f76b05f5f4f5e13c7f19495246d6f4f48280a260015f80516020612bff8339815191525580f35b60405162461bcd60e51b815260206004820152601860248201527f56616c696461746f7220616c72656164792061637469766500000000000000006044820152606490fd5b503461044a57602036600319011261044a5760206113e8611700611f95565b612252565b503461044a57602036600319011261044a576060906040906001600160a01b0361172d611f95565b16815260046020522060018060a01b0381541690600260018060a01b036001830154169101549060405192835260208301526040820152f35b503461044a57602036600319011261044a5760e06117b661084061083b61178b611f95565b611793612138565b506001600160a01b03165f818152600a6020526040902054610836901515612206565b611801604051809260c08091805184526020810151602085015260408101516040850152606081015160608501526080810151608085015260a081015160a085015201511515910152565bf35b503461044a57602036600319011261044a576020600561182f61083b6001600160a01b03610818611f95565b500154604051908152f35b503461044a57604036600319011261044a57611854611f95565b60243590611860612417565b61186c61026682612252565b81156118c45760207f63ce9927e6e9c82f626f47fe72a77d38f6d8c9bf9d49e4584acf3e90b1946a1a916118a28460015461210d565b60015560018060a01b031692838552600682526040852061154882825461210d565b60405162461bcd60e51b8152602060048201526014602482015273125b9d985b1a59081cdb185cda08185b5bdd5b9d60621b6044820152606490fd5b503461044a57604036600319011261044a5761191a611fab565b336001600160a01b0382160361193657610ccd906004356124ff565b63334bd91960e11b8252600482fd5b503461044a57602036600319011261044a5760043590611963612138565b50600854821015611a0c576009548210156119f8576118016119a26108406101009460098552806020862001548560031b1c809552600b602052611ff2565b6040519260018060a01b03168352602083019060c08091805184526020810151602085015260408101516040850152606081015160608501526080810151608085015260a081015160a085015201511515910152565b634e487b7160e01b81526032600452602490fd5b60405162461bcd60e51b8152602060048201526013602482015272496e646578206f7574206f6620626f756e647360681b6044820152606490fd5b503461044a57604036600319011261044a57610ccd600435611a67611fab565b90611a74610cc38261211a565b6124b9565b503461044a57602036600319011261044a576001600160a01b03611a9b611f95565b168152600360205260409020546001600160a01b03168015611b1557611ac081612252565b15611ad057602090604051908152f35b60405162461bcd60e51b815260206004820152601e60248201527f44656c6567617465642076616c696461746f72206e6f742061637469766500006044820152606490fd5b60405162461bcd60e51b8152602060048201526011602482015270139bc819195b1959d85d1a5bdb881cd95d607a1b6044820152606490fd5b503461044a57602036600319011261044a576020611b6d60043561211a565b604051908152f35b503461044a578060031936011261044a576020600854604051908152f35b5034611cba576040366003190112611cba57611bad611f95565b60243567ffffffffffffffff8111611cba57611bcd903690600401611fc1565b5f54604051635b14f18360e01b815230600482015291939190602090829060249082906001600160a01b03165afa8015611caf57611c12915f916104105750156120a8565b611c1a612383565b611c226123bb565b600c5415611e64578215611e31576001600160a01b0316915f918291905b818310611cbe5750505080611c65575b8260015f80516020612bff8339815191525580f35b813b15611cba575f9160248392604051948593849263296e882960e21b845260048401525af18015611caf57611c9c575b80611c50565b611ca891505f9061206e565b5f80611c96565b6040513d5f823e3d90fd5b5f80fd5b91929091906001600160a01b03611cd9610a848686866120e9565b1693611cf0855f52600d60205260405f2054151590565b15611df757845f52600460205260405f20948660405196611d1088612022565b80546001600160a01b03908116808a52600183015490911660208a0152600290910154604090980197885203611da4577f3fb733198c279e91bafa2fdf515f5ef58924785e1326715671cc7b4c92d743906020611d7160019589519061210d565b97835f52600482525f60026040822082815582898201550155611d9384612556565b5051604051908152a2019190611c40565b60405162461bcd60e51b815260206004820152602560248201527f496e76616c6964207374616b696e67206d616e6167657220666f7220726562616044820152646c616e636560d81b6064820152608490fd5b60405162461bcd60e51b8152602060048201526012602482015271139bc81c195b991a5b99c81c995c5d595cdd60721b6044820152606490fd5b60405162461bcd60e51b815260206004820152600b60248201526a456d70747920617272617960a81b6044820152606490fd5b60405162461bcd60e51b81526020600482015260136024820152724e6f2070656e64696e6720726571756573747360681b6044820152606490fd5b34611cba575f366003190112611cba576020600254604051908152f35b34611cba575f366003190112611cba575f6008545f5b818110611ee457602083604051908152f35b60ff6006611ef183611ff2565b50015416611f02575b600101611ed2565b915f198114611f145760010191611efa565b634e487b7160e01b5f52601160045260245ffd5b34611cba576020366003190112611cba576004359063ffffffff60e01b8216809203611cba57602091635a05180f60e01b8114908115611f6a575b5015158152f35b637965db0b60e01b811491508115611f84575b5083611f63565b6301ffc9a760e01b14905083611f7d565b600435906001600160a01b0382168203611cba57565b602435906001600160a01b0382168203611cba57565b9181601f84011215611cba5782359167ffffffffffffffff8311611cba576020808501948460051b010111611cba57565b60085481101561200e5760085f52600760205f20910201905f90565b634e487b7160e01b5f52603260045260245ffd5b6060810190811067ffffffffffffffff82111761203e57604052565b634e487b7160e01b5f52604160045260245ffd5b60e0810190811067ffffffffffffffff82111761203e57604052565b90601f8019910116810190811067ffffffffffffffff82111761203e57604052565b90816020910312611cba57518015158103611cba5790565b156120af57565b60405162461bcd60e51b815260206004820152601260248201527110dbdb9d1c9858dd081a5cc81c185d5cd95960721b6044820152606490fd5b919081101561200e5760051b0190565b356001600160a01b0381168103611cba5790565b91908201809211611f1457565b5f525f80516020612bdf833981519152602052600160405f20015490565b6040519061214582612052565b5f60c0838281528260208201528260408201528260608201528260808201528260a08201520152565b9060405161217b81612052565b60c060ff600683958054855260018101546020860152600281015460408601526003810154606086015260048101546080860152600581015460a08601520154161515910152565b156121ca57565b60405162461bcd60e51b815260206004820152601460248201527356616c696461746f72206e6f742061637469766560601b6044820152606490fd5b1561220d57565b60405162461bcd60e51b815260206004820152601860248201527f56616c696461746f7220646f6573206e6f7420657869737400000000000000006044820152606490fd5b600661227d61083b60ff9360018060a01b0316610836610831825f52600a60205260405f2054151590565b5001541690565b1561228b57565b60405162461bcd60e51b815260206004820152601f60248201527f56616c696461746f72206861732070656e64696e6720726562616c616e6365006044820152606490fd5b156122d757565b60405162461bcd60e51b815260206004820152601960248201527f496e76616c69642076616c696461746f722061646472657373000000000000006044820152606490fd5b9061237057600660c091835181556020840151600182015560408401516002820155606084015160038201556080840151600482015560a0840151600582015501910151151560ff80198354169116179055565b634e487b7160e01b5f525f60045260245ffd5b60025f80516020612bff83398151915254146123ac5760025f80516020612bff83398151915255565b633ee5aeb560e01b5f5260045ffd5b335f9081527f06484cc59dc38e4f67c31122333a17ca81b3ca18cdf02bfc298072fa52b0316a602052604090205460ff16156123f357565b63e2517d3f60e01b5f52336004525f80516020612bbf83398151915260245260445ffd5b335f9081527f6a07288dad4cb198070ae9ab0d91c908f3652738923841b35a5b72d3571a1cec602052604090205460ff161561244f57565b63e2517d3f60e01b5f52336004525f80516020612c1f83398151915260245260445ffd5b5f8181525f80516020612bdf8339815191526020908152604080832033845290915290205460ff16156124a35750565b63e2517d3f60e01b5f523360045260245260445ffd5b6124c382826128ca565b91826124ce57505090565b5f9182525f80516020612b9f83398151915260205260409091206124fb916001600160a01b031690612b31565b5090565b6125098282612955565b918261251457505090565b5f9182525f80516020612b9f83398151915260205260409091206124fb916001600160a01b031690612631565b805482101561200e575f5260205f2001905f90565b5f818152600d6020526040902054801561262b575f198101818111611f1457600c545f19810191908211611f14578181036125dd575b505050600c5480156125c9575f19016125a681600c612541565b8154905f199060031b1b19169055600c555f52600d6020525f6040812055600190565b634e487b7160e01b5f52603160045260245ffd5b6126156125ee6125ff93600c612541565b90549060031b1c928392600c612541565b819391549060031b91821b915f19901b19161790565b90555f52600d60205260405f20555f808061258c565b50505f90565b906001820191815f528260205260405f20548015155f146126da575f198101818111611f145782545f19810191908211611f14578181036126a5575b505050805480156125c9575f1901906126868282612541565b8154905f199060031b1b19169055555f526020525f6040812055600190565b6126c56126b56125ff9386612541565b90549060031b1c92839286612541565b90555f528360205260405f20555f808061266d565b505050505f90565b6001600160a01b0381165f9081527fb7db2dd08fcb62d0c9e08c51941cae53c267786a0b75803fb7960902fc8ef97d602052604090205460ff16612779576001600160a01b03165f8181527fb7db2dd08fcb62d0c9e08c51941cae53c267786a0b75803fb7960902fc8ef97d60205260408120805460ff191660011790553391905f80516020612b7f8339815191528180a4600190565b505f90565b6001600160a01b0381165f9081527f06484cc59dc38e4f67c31122333a17ca81b3ca18cdf02bfc298072fa52b0316a602052604090205460ff16612779576001600160a01b03165f8181527f06484cc59dc38e4f67c31122333a17ca81b3ca18cdf02bfc298072fa52b0316a60205260408120805460ff191660011790553391905f80516020612bbf833981519152905f80516020612b7f8339815191529080a4600190565b6001600160a01b0381165f9081527f6a07288dad4cb198070ae9ab0d91c908f3652738923841b35a5b72d3571a1cec602052604090205460ff16612779576001600160a01b03165f8181527f6a07288dad4cb198070ae9ab0d91c908f3652738923841b35a5b72d3571a1cec60205260408120805460ff191660011790553391905f80516020612c1f833981519152905f80516020612b7f8339815191529080a4600190565b5f8181525f80516020612bdf833981519152602090815260408083206001600160a01b038616845290915290205460ff1661262b575f8181525f80516020612bdf833981519152602090815260408083206001600160a01b0395909516808452949091528120805460ff19166001179055339291905f80516020612b7f8339815191529080a4600190565b5f8181525f80516020612bdf833981519152602090815260408083206001600160a01b038616845290915290205460ff161561262b575f8181525f80516020612bdf833981519152602090815260408083206001600160a01b0395909516808452949091528120805460ff19169055339291907ff6391f5c32d9c69d2a47ea670b442974b53935d1edc7fd64eb21e047a839171b9080a4600190565b805f52600b60205260405f205490811580612a21575b612a0f575090565b63015ab34360e11b5f5260045260245ffd5b50805f52600a60205260405f205415612a07565b805f52600b60205260405f205480155f14612a5e57505f52600a60205260405f20541515905f90565b600192909150565b60ff5f80516020612c3f8339815191525460401c1615612a8257565b631afcd79f60e31b5f5260045ffd5b805f52600a60205260405f2054155f1461277957600954600160401b81101561203e57612aca6125ff8260018594016009556009612541565b9055600954905f52600a60205260405f2055600190565b805f52600d60205260405f2054155f1461277957600c54600160401b81101561203e57612b1a6125ff826001859401600c55600c612541565b9055600c54905f52600d60205260405f2055600190565b5f82815260018201602052604090205461262b57805490600160401b82101561203e5782612b696125ff846001809601855584612541565b90558054925f520160205260405f205560019056fe2f8788117e7eff1d82e926ec794901d17c78024a50270940304540a733656f0dc1f6fe24621ce81ec5827caf0253cadb74709b061630e6b55e82371705932000241ecf16d79d0f8dbfb92cbc07fe17840425976cf0667f022fe9877caa831b0802dd7bc7dec4dceedda775e58dd541e08a116c6c53815c0bd028192f7b6268009b779b17422d0df92223018b32b4d1fa46e071723d6817e2486d003becc55f00ced6982f480260bdd8ad5cb18ff2854f0306d78d904ad6cc107e8f3a0f526c18f0c57e16840df040f15088dc2f81fe391c3923bec73e23a9662efc9c229c6a00a2646970667358221220b12975589ecae68e11b821eaaa6081143c0b83e1dadd14509fd10a0f95889f2f64736f6c634300081a0033","linkReferences":{}},"methodIdentifiers":{"BASIS_POINTS()":"e1f1c4a7","DEFAULT_ADMIN_ROLE()":"a217fddf","MANAGER_ROLE()":"ec87621c","ORACLE_MANAGER_ROLE()":"bfc69e1c","activateValidator(address)":"b46e5520","activeValidatorsCount()":"0d2bd909","closeRebalanceRequests(address,address[])":"0eb9acea","deactivateValidator(address)":"ba50b879","delegations(address)":"bffe3486","getDelegation(address)":"2b293768","getRoleAdmin(bytes32)":"248a9ca3","getRoleMember(bytes32,uint256)":"9010d07c","getRoleMemberCount(bytes32)":"ca15c873","getRoleMembers(bytes32)":"a3246ad3","grantRole(bytes32,address)":"2f2ff15d","hasPendingRebalance(address)":"8f50bd13","hasRole(bytes32,address)":"91d14854","initialize(address,address,address,address)":"f8c8765e","pauserRegistry()":"886f1195","reactivateValidator(address)":"7623a74e","rebalanceWithdrawal(address,address[],uint256[])":"e47c355b","renounceRole(bytes32,address)":"36568abe","reportRewardEvent(address,uint256)":"825b7477","reportSlashingEvent(address,uint256)":"37ce96ac","revokeRole(bytes32,address)":"d547741f","setDelegation(address,address)":"aaa54e0d","supportsInterface(bytes4)":"01ffc9a7","totalRewards()":"0e15561a","totalSlashing()":"f30720d6","updateValidatorPerformance(address,uint256,uint256,uint256,uint256,uint256)":"fcf126d6","validatorActiveState(address)":"631f15a9","validatorAt(uint256)":"32e0aa1f","validatorBalance(address)":"8e87ce2d","validatorCount()":"0f43a677","validatorInfo(address)":"4f1811dd","validatorLastUpdateTime(address)":"4db69d26","validatorPerformance(address)":"8ac7834b","validatorRebalanceRequests(address)":"57afa91c","validatorRewards(address)":"b1845c56","validatorScores(address)":"f5a9f94a","validatorSlashing(address)":"da13ffbf"},"id":88}