{"abi":[{"type":"constructor","inputs":[],"stateMutability":"nonpayable"},{"type":"function","name":"BURNER_ROLE","inputs":[],"outputs":[{"name":"","type":"bytes32","internalType":"bytes32"}],"stateMutability":"view"},{"type":"function","name":"DEFAULT_ADMIN_ROLE","inputs":[],"outputs":[{"name":"","type":"bytes32","internalType":"bytes32"}],"stateMutability":"view"},{"type":"function","name":"DOMAIN_SEPARATOR","inputs":[],"outputs":[{"name":"","type":"bytes32","internalType":"bytes32"}],"stateMutability":"view"},{"type":"function","name":"MINTER_ROLE","inputs":[],"outputs":[{"name":"","type":"bytes32","internalType":"bytes32"}],"stateMutability":"view"},{"type":"function","name":"allowance","inputs":[{"name":"owner","type":"address","internalType":"address"},{"name":"spender","type":"address","internalType":"address"}],"outputs":[{"name":"","type":"uint256","internalType":"uint256"}],"stateMutability":"view"},{"type":"function","name":"approve","inputs":[{"name":"spender","type":"address","internalType":"address"},{"name":"value","type":"uint256","internalType":"uint256"}],"outputs":[{"name":"","type":"bool","internalType":"bool"}],"stateMutability":"nonpayable"},{"type":"function","name":"balanceOf","inputs":[{"name":"account","type":"address","internalType":"address"}],"outputs":[{"name":"","type":"uint256","internalType":"uint256"}],"stateMutability":"view"},{"type":"function","name":"burn","inputs":[{"name":"from","type":"address","internalType":"address"},{"name":"amount","type":"uint256","internalType":"uint256"}],"outputs":[],"stateMutability":"nonpayable"},{"type":"function","name":"decimals","inputs":[],"outputs":[{"name":"","type":"uint8","internalType":"uint8"}],"stateMutability":"view"},{"type":"function","name":"eip712Domain","inputs":[],"outputs":[{"name":"fields","type":"bytes1","internalType":"bytes1"},{"name":"name","type":"string","internalType":"string"},{"name":"version","type":"string","internalType":"string"},{"name":"chainId","type":"uint256","internalType":"uint256"},{"name":"verifyingContract","type":"address","internalType":"address"},{"name":"salt","type":"bytes32","internalType":"bytes32"},{"name":"extensions","type":"uint256[]","internalType":"uint256[]"}],"stateMutability":"view"},{"type":"function","name":"getRoleAdmin","inputs":[{"name":"role","type":"bytes32","internalType":"bytes32"}],"outputs":[{"name":"","type":"bytes32","internalType":"bytes32"}],"stateMutability":"view"},{"type":"function","name":"getRoleMember","inputs":[{"name":"role","type":"bytes32","internalType":"bytes32"},{"name":"index","type":"uint256","internalType":"uint256"}],"outputs":[{"name":"","type":"address","internalType":"address"}],"stateMutability":"view"},{"type":"function","name":"getRoleMemberCount","inputs":[{"name":"role","type":"bytes32","internalType":"bytes32"}],"outputs":[{"name":"","type":"uint256","internalType":"uint256"}],"stateMutability":"view"},{"type":"function","name":"getRoleMembers","inputs":[{"name":"role","type":"bytes32","internalType":"bytes32"}],"outputs":[{"name":"","type":"address[]","internalType":"address[]"}],"stateMutability":"view"},{"type":"function","name":"grantRole","inputs":[{"name":"role","type":"bytes32","internalType":"bytes32"},{"name":"account","type":"address","internalType":"address"}],"outputs":[],"stateMutability":"nonpayable"},{"type":"function","name":"hasRole","inputs":[{"name":"role","type":"bytes32","internalType":"bytes32"},{"name":"account","type":"address","internalType":"address"}],"outputs":[{"name":"","type":"bool","internalType":"bool"}],"stateMutability":"view"},{"type":"function","name":"initialize","inputs":[{"name":"name","type":"string","internalType":"string"},{"name":"symbol","type":"string","internalType":"string"},{"name":"admin","type":"address","internalType":"address"},{"name":"minter","type":"address","internalType":"address"},{"name":"burner","type":"address","internalType":"address"},{"name":"_pauserRegistry","type":"address","internalType":"address"}],"outputs":[],"stateMutability":"nonpayable"},{"type":"function","name":"mint","inputs":[{"name":"to","type":"address","internalType":"address"},{"name":"amount","type":"uint256","internalType":"uint256"}],"outputs":[],"stateMutability":"nonpayable"},{"type":"function","name":"name","inputs":[],"outputs":[{"name":"","type":"string","internalType":"string"}],"stateMutability":"view"},{"type":"function","name":"nonces","inputs":[{"name":"owner","type":"address","internalType":"address"}],"outputs":[{"name":"","type":"uint256","internalType":"uint256"}],"stateMutability":"view"},{"type":"function","name":"pauserRegistry","inputs":[],"outputs":[{"name":"","type":"address","internalType":"contract IPauserRegistry"}],"stateMutability":"view"},{"type":"function","name":"permit","inputs":[{"name":"owner","type":"address","internalType":"address"},{"name":"spender","type":"address","internalType":"address"},{"name":"value","type":"uint256","internalType":"uint256"},{"name":"deadline","type":"uint256","internalType":"uint256"},{"name":"v","type":"uint8","internalType":"uint8"},{"name":"r","type":"bytes32","internalType":"bytes32"},{"name":"s","type":"bytes32","internalType":"bytes32"}],"outputs":[],"stateMutability":"nonpayable"},{"type":"function","name":"renounceRole","inputs":[{"name":"role","type":"bytes32","internalType":"bytes32"},{"name":"callerConfirmation","type":"address","internalType":"address"}],"outputs":[],"stateMutability":"nonpayable"},{"type":"function","name":"revokeRole","inputs":[{"name":"role","type":"bytes32","internalType":"bytes32"},{"name":"account","type":"address","internalType":"address"}],"outputs":[],"stateMutability":"nonpayable"},{"type":"function","name":"supportsInterface","inputs":[{"name":"interfaceId","type":"bytes4","internalType":"bytes4"}],"outputs":[{"name":"","type":"bool","internalType":"bool"}],"stateMutability":"view"},{"type":"function","name":"symbol","inputs":[],"outputs":[{"name":"","type":"string","internalType":"string"}],"stateMutability":"view"},{"type":"function","name":"totalSupply","inputs":[],"outputs":[{"name":"","type":"uint256","internalType":"uint256"}],"stateMutability":"view"},{"type":"function","name":"transfer","inputs":[{"name":"to","type":"address","internalType":"address"},{"name":"value","type":"uint256","internalType":"uint256"}],"outputs":[{"name":"","type":"bool","internalType":"bool"}],"stateMutability":"nonpayable"},{"type":"function","name":"transferFrom","inputs":[{"name":"from","type":"address","internalType":"address"},{"name":"to","type":"address","internalType":"address"},{"name":"value","type":"uint256","internalType":"uint256"}],"outputs":[{"name":"","type":"bool","internalType":"bool"}],"stateMutability":"nonpayable"},{"type":"event","name":"Approval","inputs":[{"name":"owner","type":"address","indexed":true,"internalType":"address"},{"name":"spender","type":"address","indexed":true,"internalType":"address"},{"name":"value","type":"uint256","indexed":false,"internalType":"uint256"}],"anonymous":false},{"type":"event","name":"EIP712DomainChanged","inputs":[],"anonymous":false},{"type":"event","name":"Initialized","inputs":[{"name":"version","type":"uint64","indexed":false,"internalType":"uint64"}],"anonymous":false},{"type":"event","name":"RoleAdminChanged","inputs":[{"name":"role","type":"bytes32","indexed":true,"internalType":"bytes32"},{"name":"previousAdminRole","type":"bytes32","indexed":true,"internalType":"bytes32"},{"name":"newAdminRole","type":"bytes32","indexed":true,"internalType":"bytes32"}],"anonymous":false},{"type":"event","name":"RoleGranted","inputs":[{"name":"role","type":"bytes32","indexed":true,"internalType":"bytes32"},{"name":"account","type":"address","indexed":true,"internalType":"address"},{"name":"sender","type":"address","indexed":true,"internalType":"address"}],"anonymous":false},{"type":"event","name":"RoleRevoked","inputs":[{"name":"role","type":"bytes32","indexed":true,"internalType":"bytes32"},{"name":"account","type":"address","indexed":true,"internalType":"address"},{"name":"sender","type":"address","indexed":true,"internalType":"address"}],"anonymous":false},{"type":"event","name":"Transfer","inputs":[{"name":"from","type":"address","indexed":true,"internalType":"address"},{"name":"to","type":"address","indexed":true,"internalType":"address"},{"name":"value","type":"uint256","indexed":false,"internalType":"uint256"}],"anonymous":false},{"type":"error","name":"AccessControlBadConfirmation","inputs":[]},{"type":"error","name":"AccessControlUnauthorizedAccount","inputs":[{"name":"account","type":"address","internalType":"address"},{"name":"neededRole","type":"bytes32","internalType":"bytes32"}]},{"type":"error","name":"ECDSAInvalidSignature","inputs":[]},{"type":"error","name":"ECDSAInvalidSignatureLength","inputs":[{"name":"length","type":"uint256","internalType":"uint256"}]},{"type":"error","name":"ECDSAInvalidSignatureS","inputs":[{"name":"s","type":"bytes32","internalType":"bytes32"}]},{"type":"error","name":"ERC20InsufficientAllowance","inputs":[{"name":"spender","type":"address","internalType":"address"},{"name":"allowance","type":"uint256","internalType":"uint256"},{"name":"needed","type":"uint256","internalType":"uint256"}]},{"type":"error","name":"ERC20InsufficientBalance","inputs":[{"name":"sender","type":"address","internalType":"address"},{"name":"balance","type":"uint256","internalType":"uint256"},{"name":"needed","type":"uint256","internalType":"uint256"}]},{"type":"error","name":"ERC20InvalidApprover","inputs":[{"name":"approver","type":"address","internalType":"address"}]},{"type":"error","name":"ERC20InvalidReceiver","inputs":[{"name":"receiver","type":"address","internalType":"address"}]},{"type":"error","name":"ERC20InvalidSender","inputs":[{"name":"sender","type":"address","internalType":"address"}]},{"type":"error","name":"ERC20InvalidSpender","inputs":[{"name":"spender","type":"address","internalType":"address"}]},{"type":"error","name":"ERC2612ExpiredSignature","inputs":[{"name":"deadline","type":"uint256","internalType":"uint256"}]},{"type":"error","name":"ERC2612InvalidSigner","inputs":[{"name":"signer","type":"address","internalType":"address"},{"name":"owner","type":"address","internalType":"address"}]},{"type":"error","name":"InvalidAccountNonce","inputs":[{"name":"account","type":"address","internalType":"address"},{"name":"currentNonce","type":"uint256","internalType":"uint256"}]},{"type":"error","name":"InvalidInitialization","inputs":[]},{"type":"error","name":"NotInitializing","inputs":[]}],"bytecode":{"object":"0x6080806040523460d0577ff0c57e16840df040f15088dc2f81fe391c3923bec73e23a9662efc9c229c6a005460ff8160401c1660c1576002600160401b03196001600160401b03821601605c575b6040516127bb90816100d58239f35b6001600160401b0319166001600160401b039081177ff0c57e16840df040f15088dc2f81fe391c3923bec73e23a9662efc9c229c6a005581527fc7f505b2f371ae2175ee4913f4499e1f2633a7b5936321eed1cdaeb6115181d290602090a15f80604d565b63f92ee8a960e01b5f5260045ffd5b5f80fdfe6080806040526004361015610012575f80fd5b5f3560e01c90816301ffc9a7146119975750806306fdde03146118da578063095ea7b3146118b457806318160ddd1461188b57806323b872dd146117b3578063248a9ca314611795578063282c51f31461176e5780632f2ff15d1461173d578063313ce567146117225780633644e5151461170057806336568abe146116bc57806340c10f191461151f57806370a08231146114db5780637ecebe001461148557806384b0196e1461133b578063886f1195146113145780639010d07c146112c357806391d148541461126e57806395d89b41146111745780639dc29fac14610f7a578063a217fddf14610f60578063a3246ad314610ea5578063a9059cbb14610e74578063ca15c87314610e3e578063d505accf14610cdc578063d539139314610cb5578063d547741f14610c7d578063dd62ed3e14610c365763e56f2fe41461015b575f80fd5b34610c325760c0366003190112610c325760043567ffffffffffffffff8111610c325761018c903690600401611a54565b60243567ffffffffffffffff8111610c32576101ac903690600401611a54565b60443593919290916001600160a01b038516808603610c32576064356001600160a01b03811691828203610c32576084356001600160a01b03811695909490868603610c325760a4356001600160a01b0381169890899003610c32575f80516020612766833981519152549960ff8b60401c16159a67ffffffffffffffff811680159081610c2a575b6001149081610c20575b159081610c17575b50610c085767ffffffffffffffff1981166001175f80516020612766833981519152558b610bdc575b508415610b9f578915610b5a578615610b1c578815610ade576102a090610298368587611cae565b923691611cae565b906102a96123f7565b6102b16123f7565b80519067ffffffffffffffff82116107c85781906102dc5f8051602061266683398151915254611a82565b601f8111610a64575b50602090601f83116001146109e6575f926109db575b50508160011b915f199060031b1c1916175f80516020612666833981519152555b80519067ffffffffffffffff82116107c8576103455f805160206126c683398151915254611a82565b601f811161096c575b50602090601f83116001146108ea57610394949392915f91836108df575b50508160011b915f199060031b1c1916175f805160206126c6833981519152555b3691611cae565b9761039d6123f7565b6040988951906103ad8b83611aba565b60018252603160f81b60208301526103c36123f7565b80519067ffffffffffffffff82116107c85781906103ee5f805160206126a683398151915254611a82565b601f8111610865575b50602090601f83116001146107e7575f926107dc575b50508160011b915f199060031b1c1916175f805160206126a6833981519152555b80519067ffffffffffffffff82116107c8576104575f8051602061270683398151915254611a82565b601f8111610759575b50602090601f83116001146106ce5792826105b195936105a6936105bc9a9998965f926106c3575b50508160011b915f199060031b1c1916175f80516020612706833981519152555b5f7fa16a46d94261c7517cc8ff89f61c0ce93598e3c849801011dee649a6a557d100555f7fa16a46d94261c7517cc8ff89f61c0ce93598e3c849801011dee649a6a557d101556104f76123f7565b5f805160206127268339815191525f8181525f805160206127468339815191526020528d812060010180549082905590917fbd79b86ffe0ab8e8776151514217cd7cacd52c909f66475c3af44e129f0b00ff8380a45f805160206126268339815191525f8181525f805160206127468339815191526020528d812060010180549082905590917fbd79b86ffe0ab8e8776151514217cd7cacd52c909f66475c3af44e129f0b00ff8380a4611f5c565b61069c575b50611ff8565b610668575b5061209e565b610634575b506bffffffffffffffffffffffff60a01b5f5416175f556105de57005b60207fc7f505b2f371ae2175ee4913f4499e1f2633a7b5936321eed1cdaeb6115181d29168ff0000000000000000195f8051602061276683398151915254165f80516020612766833981519152555160018152a1005b610661905f805160206126268339815191525f525f80516020612646833981519152602052845f20612422565b505f6105c1565b610695905f805160206127268339815191525f525f80516020612646833981519152602052875f20612422565b505f6105b6565b6106bc905f80525f805160206126468339815191526020528a5f20612422565b505f6105ab565b015190505f80610488565b90601f198316915f805160206127068339815191525f52815f20925f5b8181106107415750936105a6936105bc9a99989693600193836105b19a9810610729575b505050811b015f80516020612706833981519152556104a9565b01515f1960f88460031b161c191690555f808061070f565b929360206001819287860151815501950193016106eb565b5f805160206127068339815191525f527f5f9ce34815f8e11431c7bb75a8e6886a91478f7ffc1dbb0a98dc240fddd76b75601f840160051c810191602085106107be575b601f0160051c01905b8181106107b35750610460565b5f81556001016107a6565b909150819061079d565b634e487b7160e01b5f52604160045260245ffd5b015190505f8061040d565b5f805160206126a68339815191525f9081528281209350601f198516905b81811061084d5750908460019594939210610835575b505050811b015f805160206126a68339815191525561042e565b01515f1960f88460031b161c191690555f808061081b565b92936020600181928786015181550195019301610805565b5f805160206126a68339815191525f529091507f42ad5d3e1f2e6e70edcf6d991b8a3023d3fca8047a131592f9edb9fd9b89d57d601f840160051c810191602085106108d5575b90601f859493920160051c01905b8181106108c757506103f7565b5f81558493506001016108ba565b90915081906108ac565b015190505f8061036c565b90601f198316915f805160206126c68339815191525f52815f20925f5b8181106109545750916001939185610394989796941061093c575b505050811b015f805160206126c68339815191525561038d565b01515f1960f88460031b161c191690555f8080610922565b92936020600181928786015181550195019301610907565b5f805160206126c68339815191525f527f46a2803e59a4de4e7a4c574b1243f25977ac4c77d5a1a4a609b5394cebb4a2aa601f840160051c810191602085106109d1575b601f0160051c01905b8181106109c6575061034e565b5f81556001016109b9565b90915081906109b0565b015190505f806102fb565b5f805160206126668339815191525f9081528281209350601f198516905b818110610a4c5750908460019594939210610a34575b505050811b015f805160206126668339815191525561031c565b01515f1960f88460031b161c191690555f8080610a1a565b92936020600181928786015181550195019301610a04565b5f805160206126668339815191525f529091507f2ae08a8e29253f69ac5d979a101956ab8f8d9d7ded63fa7a83b16fc47648eab0601f840160051c81019160208510610ad4575b90601f859493920160051c01905b818110610ac657506102e5565b5f8155849350600101610ab9565b9091508190610aab565b60405162461bcd60e51b8152602060048201526016602482015275496e76616c6964206275726e6572206164647265737360501b6044820152606490fd5b60405162461bcd60e51b8152602060048201526016602482015275496e76616c6964206d696e746572206164647265737360501b6044820152606490fd5b60405162461bcd60e51b815260206004820152601f60248201527f496e76616c6964207061757365722072656769737472792061646472657373006044820152606490fd5b60405162461bcd60e51b8152602060048201526015602482015274496e76616c69642061646d696e206164647265737360581b6044820152606490fd5b68ffffffffffffffffff191668010000000000000001175f80516020612766833981519152555f610270565b63f92ee8a960e01b5f5260045ffd5b9050155f610247565b303b15915061023f565b8d9150610235565b5f80fd5b34610c32576040366003190112610c3257610c4f611a28565b610c60610c5a611a3e565b91611c76565b9060018060a01b03165f52602052602060405f2054604051908152f35b34610c32576040366003190112610c3257610cb3600435610c9c611a3e565b90610cae610ca982611c58565b611e2b565b611eb7565b005b34610c32575f366003190112610c325760206040515f805160206127268339815191528152f35b34610c325760e0366003190112610c3257610cf5611a28565b610cfd611a3e565b604435906064359260843560ff81168103610c3257844211610e2b57610df0610df99160018060a01b03841696875f527f5ab42ced628888259c08ac98db1eb0cf702fc1501344311d8b100cd1bfe4bb0060205260405f20908154916001830190556040519060208201927f6e71edae12b1b97f4d1f60370fef10105fa2faae0126114a169c64845d6126c984528a604084015260018060a01b038916606084015289608084015260a083015260c082015260c08152610dbe60e082611aba565b519020610dc96121d5565b906040519161190160f01b83526002830152602282015260c43591604260a4359220612301565b90929192612383565b6001600160a01b0316848103610e145750610cb39350611ef9565b84906325c0072360e11b5f5260045260245260445ffd5b8463313c898160e11b5f5260045260245ffd5b34610c32576020366003190112610c32576004355f525f80516020612646833981519152602052602060405f2054604051908152f35b34610c32576040366003190112610c3257610e9a610e90611a28565b6024359033611cf4565b602060405160018152f35b34610c32576020366003190112610c32576004355f525f8051602061264683398151915260205260405f20604051806020835491828152019081935f5260205f20905f5b818110610f4a5750505081610eff910382611aba565b604051918291602083019060208452518091526040830191905f5b818110610f28575050500390f35b82516001600160a01b0316845285945060209384019390920191600101610f1a565b8254845260209093019260019283019201610ee9565b34610c32575f366003190112610c325760206040515f8152f35b34610c32576040366003190112610c3257610f93611a28565b335f9081527ffcf1b2032b1187d9f2a29150c4a608b3b6f0bdf8dd007801f86a276af50cad926020526040902054602435919060ff1615611150576001600160a01b0316801561113d575f54604051635b14f18360e01b815230600482015290602090829060249082906001600160a01b03165afa908115611132575f916110f7575b506110bd57805f525f8051602061268683398151915260205260405f20548281106110a4576020835f947fddf252ad1be2c89b69c2b068fc378daa952ba7f163c4a11628f55a4df523b3ef938587525f805160206126868339815191528452036040862055805f805160206126e683398151915254035f805160206126e683398151915255604051908152a3005b9063391434e360e21b5f5260045260245260445260645ffd5b60405162461bcd60e51b815260206004820152601260248201527110dbdb9d1c9858dd081a5cc81c185d5cd95960721b6044820152606490fd5b90506020813d60201161112a575b8161111260209383611aba565b81010312610c3257518015158103610c325783611016565b3d9150611105565b6040513d5f823e3d90fd5b634b637e8f60e11b5f525f60045260245ffd5b63e2517d3f60e01b5f52336004525f8051602061262683398151915260245260445ffd5b34610c32575f366003190112610c32576040515f5f805160206126c6833981519152546111a081611a82565b808452906001811690811561124a57506001146111e0575b6111dc836111c881850382611aba565b604051918291602083526020830190611a04565b0390f35b5f805160206126c68339815191525f9081527f46a2803e59a4de4e7a4c574b1243f25977ac4c77d5a1a4a609b5394cebb4a2aa939250905b808210611230575090915081016020016111c86111b8565b919260018160209254838588010152019101909291611218565b60ff191660208086019190915291151560051b840190910191506111c890506111b8565b34610c32576040366003190112610c3257611287611a3e565b6004355f525f8051602061274683398151915260205260405f209060018060a01b03165f52602052602060ff60405f2054166040519015158152f35b34610c32576040366003190112610c32576004355f525f8051602061264683398151915260205260206112fb60243560405f206122d8565b905460405160039290921b1c6001600160a01b03168152f35b34610c32575f366003190112610c32575f546040516001600160a01b039091168152602090f35b34610c32575f366003190112610c32577fa16a46d94261c7517cc8ff89f61c0ce93598e3c849801011dee649a6a557d10054158061145c575b1561141f576113c3611384611adc565b61138c611bab565b60206113d16040519261139f8385611aba565b5f84525f368137604051958695600f60f81b875260e08588015260e0870190611a04565b908582036040870152611a04565b4660608501523060808501525f60a085015283810360c08501528180845192838152019301915f5b82811061140857505050500390f35b8351855286955093810193928101926001016113f9565b60405162461bcd60e51b81526020600482015260156024820152741152540dcc4c8e88155b9a5b9a5d1a585b1a5e9959605a1b6044820152606490fd5b507fa16a46d94261c7517cc8ff89f61c0ce93598e3c849801011dee649a6a557d1015415611374565b34610c32576020366003190112610c325761149e611a28565b60018060a01b03165f527f5ab42ced628888259c08ac98db1eb0cf702fc1501344311d8b100cd1bfe4bb00602052602060405f2054604051908152f35b34610c32576020366003190112610c32576001600160a01b036114fc611a28565b165f525f80516020612686833981519152602052602060405f2054604051908152f35b34610c32576040366003190112610c3257611538611a28565b335f9081527f549fe2656c81d2947b3b913f0a53b9ea86c71e049f3a1b8aa23c09a8a05cb8d46020526040902054602435919060ff1615611698576001600160a01b0316908115611685575f54604051635b14f18360e01b815230600482015290602090829060249082906001600160a01b03165afa908115611132575f9161164a575b506110bd575f805160206126e683398151915254908082018092116116365760207fddf252ad1be2c89b69c2b068fc378daa952ba7f163c4a11628f55a4df523b3ef915f935f805160206126e6833981519152558484525f80516020612686833981519152825260408420818154019055604051908152a3005b634e487b7160e01b5f52601160045260245ffd5b90506020813d60201161167d575b8161166560209383611aba565b81010312610c3257518015158103610c3257836115bc565b3d9150611658565b63ec442f0560e01b5f525f60045260245ffd5b63e2517d3f60e01b5f52336004525f8051602061272683398151915260245260445ffd5b34610c32576040366003190112610c32576116d5611a3e565b336001600160a01b038216036116f157610cb390600435611eb7565b63334bd91960e11b5f5260045ffd5b34610c32575f366003190112610c3257602061171a6121d5565b604051908152f35b34610c32575f366003190112610c3257602060405160128152f35b34610c32576040366003190112610c3257610cb360043561175c611a3e565b90611769610ca982611c58565b611e71565b34610c32575f366003190112610c325760206040515f805160206126268339815191528152f35b34610c32576020366003190112610c3257602061171a600435611c58565b34610c32576060366003190112610c32576117cc611a28565b6117d4611a3e565b604435906117e183611c76565b335f90815260209190915260409020549260018401611805575b610e9a9350611cf4565b828410611870576001600160a01b0381161561185d57331561184a57610e9a9361182e82611c76565b60018060a01b0333165f526020528360405f20910390556117fb565b634a1406b160e11b5f525f60045260245ffd5b63e602df0560e01b5f525f60045260245ffd5b8284637dc7a0d960e11b5f523360045260245260445260645ffd5b34610c32575f366003190112610c325760205f805160206126e683398151915254604051908152f35b34610c32576040366003190112610c3257610e9a6118d0611a28565b6024359033611ef9565b34610c32575f366003190112610c32576040515f5f805160206126668339815191525461190681611a82565b808452906001811690811561124a575060011461192d576111dc836111c881850382611aba565b5f805160206126668339815191525f9081527f2ae08a8e29253f69ac5d979a101956ab8f8d9d7ded63fa7a83b16fc47648eab0939250905b80821061197d575090915081016020016111c86111b8565b919260018160209254838588010152019101909291611965565b34610c32576020366003190112610c32576004359063ffffffff60e01b8216809203610c3257602091635a05180f60e01b81149081156119d9575b5015158152f35b637965db0b60e01b8114915081156119f3575b50836119d2565b6301ffc9a760e01b149050836119ec565b805180835260209291819084018484015e5f828201840152601f01601f1916010190565b600435906001600160a01b0382168203610c3257565b602435906001600160a01b0382168203610c3257565b9181601f84011215610c325782359167ffffffffffffffff8311610c325760208381860195010111610c3257565b90600182811c92168015611ab0575b6020831014611a9c57565b634e487b7160e01b5f52602260045260245ffd5b91607f1691611a91565b90601f8019910116810190811067ffffffffffffffff8211176107c857604052565b604051905f825f805160206126a68339815191525491611afb83611a82565b8083529260018116908115611b8c5750600114611b21575b611b1f92500383611aba565b565b505f805160206126a68339815191525f90815290917f42ad5d3e1f2e6e70edcf6d991b8a3023d3fca8047a131592f9edb9fd9b89d57d5b818310611b70575050906020611b1f92820101611b13565b6020919350806001915483858901015201910190918492611b58565b60209250611b1f94915060ff191682840152151560051b820101611b13565b604051905f825f805160206127068339815191525491611bca83611a82565b8083529260018116908115611b8c5750600114611bed57611b1f92500383611aba565b505f805160206127068339815191525f90815290917f5f9ce34815f8e11431c7bb75a8e6886a91478f7ffc1dbb0a98dc240fddd76b755b818310611c3c575050906020611b1f92820101611b13565b6020919350806001915483858901015201910190918492611c24565b5f525f80516020612746833981519152602052600160405f20015490565b6001600160a01b03165f9081527f52c63247e1f47db19d5ce0460030c497f067ca4cebf71ba98eeadabe20bace016020526040902090565b92919267ffffffffffffffff82116107c85760405191611cd8601f8201601f191660200184611aba565b829481845281830111610c32578281602093845f960137010152565b6001600160a01b031690811561113d576001600160a01b0316918215611685575f54604051635b14f18360e01b815230600482015290602090829060249082906001600160a01b03165afa908115611132575f91611df0575b506110bd57815f525f8051602061268683398151915260205260405f2054818110611dd757817fddf252ad1be2c89b69c2b068fc378daa952ba7f163c4a11628f55a4df523b3ef92602092855f525f8051602061268683398151915284520360405f2055845f525f80516020612686833981519152825260405f20818154019055604051908152a3565b8263391434e360e21b5f5260045260245260445260645ffd5b90506020813d602011611e23575b81611e0b60209383611aba565b81010312610c3257518015158103610c32575f611d4d565b3d9150611dfe565b5f8181525f805160206127468339815191526020908152604080832033845290915290205460ff1615611e5b5750565b63e2517d3f60e01b5f523360045260245260445ffd5b611e7b8282612144565b9182611e8657505090565b5f9182525f805160206126468339815191526020526040909120611eb3916001600160a01b031690612422565b5090565b611ec1828261223c565b9182611ecc57505090565b5f9182525f805160206126468339815191526020526040909120611eb3916001600160a01b031690612540565b916001600160a01b03831691821561185d576001600160a01b031692831561184a577f8c5be1e5ebec7d5bd14f71427d1e84f3dd0314c0f7b2291e5b200ac8c7c3b92591611f48602092611c76565b855f5282528060405f2055604051908152a3565b6001600160a01b0381165f9081527fb7db2dd08fcb62d0c9e08c51941cae53c267786a0b75803fb7960902fc8ef97d602052604090205460ff16611ff3576001600160a01b03165f8181527fb7db2dd08fcb62d0c9e08c51941cae53c267786a0b75803fb7960902fc8ef97d60205260408120805460ff191660011790553391905f805160206126068339815191528180a4600190565b505f90565b6001600160a01b0381165f9081527f549fe2656c81d2947b3b913f0a53b9ea86c71e049f3a1b8aa23c09a8a05cb8d4602052604090205460ff16611ff3576001600160a01b03165f8181527f549fe2656c81d2947b3b913f0a53b9ea86c71e049f3a1b8aa23c09a8a05cb8d460205260408120805460ff191660011790553391905f80516020612726833981519152905f805160206126068339815191529080a4600190565b6001600160a01b0381165f9081527ffcf1b2032b1187d9f2a29150c4a608b3b6f0bdf8dd007801f86a276af50cad92602052604090205460ff16611ff3576001600160a01b03165f8181527ffcf1b2032b1187d9f2a29150c4a608b3b6f0bdf8dd007801f86a276af50cad9260205260408120805460ff191660011790553391905f80516020612626833981519152905f805160206126068339815191529080a4600190565b5f8181525f80516020612746833981519152602090815260408083206001600160a01b038616845290915290205460ff166121cf575f8181525f80516020612746833981519152602090815260408083206001600160a01b0395909516808452949091528120805460ff19166001179055339291905f805160206126068339815191529080a4600190565b50505f90565b6121dd612491565b6121e56124fb565b6040519060208201927f8b73c3c69bb8fe3d512ecc4cf759cc79239f7b179b0ffacaa9a75d522b39400f8452604083015260608201524660808201523060a082015260a0815261223660c082611aba565b51902090565b5f8181525f80516020612746833981519152602090815260408083206001600160a01b038616845290915290205460ff16156121cf575f8181525f80516020612746833981519152602090815260408083206001600160a01b0395909516808452949091528120805460ff19169055339291907ff6391f5c32d9c69d2a47ea670b442974b53935d1edc7fd64eb21e047a839171b9080a4600190565b80548210156122ed575f5260205f2001905f90565b634e487b7160e01b5f52603260045260245ffd5b91907f7fffffffffffffffffffffffffffffff5d576e7357a4501ddfe92f46681b20a08411612378579160209360809260ff5f9560405194855216868401526040830152606082015282805260015afa15611132575f516001600160a01b0381161561236e57905f905f90565b505f906001905f90565b5050505f9160039190565b60048110156123e35780612395575050565b600181036123ac5763f645eedf60e01b5f5260045ffd5b600281036123c7575063fce698f760e01b5f5260045260245ffd5b6003146123d15750565b6335e2f38360e21b5f5260045260245ffd5b634e487b7160e01b5f52602160045260245ffd5b60ff5f805160206127668339815191525460401c161561241357565b631afcd79f60e31b5f5260045ffd5b6001810190825f528160205260405f2054155f1461248a578054680100000000000000008110156107c8576124776124618260018794018555846122d8565b819391549060031b91821b915f19901b19161790565b905554915f5260205260405f2055600190565b5050505f90565b612499611adc565b80519081156124a9576020012090565b50507fa16a46d94261c7517cc8ff89f61c0ce93598e3c849801011dee649a6a557d1005480156124d65790565b507fc5d2460186f7233c927e7db2dcc703c0e500b653ca82273b7bfad8045d85a47090565b612503611bab565b8051908115612513576020012090565b50507fa16a46d94261c7517cc8ff89f61c0ce93598e3c849801011dee649a6a557d1015480156124d65790565b906001820191815f528260205260405f20548015155f146125fd575f1981018181116116365782545f19810191908211611636578181036125c8575b505050805480156125b4575f19019061259582826122d8565b8154905f199060031b1b19169055555f526020525f6040812055600190565b634e487b7160e01b5f52603160045260245ffd5b6125e86125d861246193866122d8565b90549060031b1c928392866122d8565b90555f528360205260405f20555f808061257c565b505050505f9056fe2f8788117e7eff1d82e926ec794901d17c78024a50270940304540a733656f0d3c11d16cbaffd01df69ce1c404f6340ee057498f5f00246190ea54220576a848c1f6fe24621ce81ec5827caf0253cadb74709b061630e6b55e8237170593200052c63247e1f47db19d5ce0460030c497f067ca4cebf71ba98eeadabe20bace0352c63247e1f47db19d5ce0460030c497f067ca4cebf71ba98eeadabe20bace00a16a46d94261c7517cc8ff89f61c0ce93598e3c849801011dee649a6a557d10252c63247e1f47db19d5ce0460030c497f067ca4cebf71ba98eeadabe20bace0452c63247e1f47db19d5ce0460030c497f067ca4cebf71ba98eeadabe20bace02a16a46d94261c7517cc8ff89f61c0ce93598e3c849801011dee649a6a557d1039f2df0fed2c77648de5860a4cc508cd0818c85b8b8a1ab4ceeef8d981c8956a602dd7bc7dec4dceedda775e58dd541e08a116c6c53815c0bd028192f7b626800f0c57e16840df040f15088dc2f81fe391c3923bec73e23a9662efc9c229c6a00a26469706673582212205b30f77a4db103abe8f56066e84c78ef0f8f5ea32ce14fbdb215b8e12323e19564736f6c634300081a0033","linkReferences":{}},"methodIdentifiers":{"BURNER_ROLE()":"282c51f3","DEFAULT_ADMIN_ROLE()":"a217fddf","DOMAIN_SEPARATOR()":"3644e515","MINTER_ROLE()":"d5391393","allowance(address,address)":"dd62ed3e","approve(address,uint256)":"095ea7b3","balanceOf(address)":"70a08231","burn(address,uint256)":"9dc29fac","decimals()":"313ce567","eip712Domain()":"84b0196e","getRoleAdmin(bytes32)":"248a9ca3","getRoleMember(bytes32,uint256)":"9010d07c","getRoleMemberCount(bytes32)":"ca15c873","getRoleMembers(bytes32)":"a3246ad3","grantRole(bytes32,address)":"2f2ff15d","hasRole(bytes32,address)":"91d14854","initialize(string,string,address,address,address,address)":"e56f2fe4","mint(address,uint256)":"40c10f19","name()":"06fdde03","nonces(address)":"7ecebe00","pauserRegistry()":"886f1195","permit(address,address,uint256,uint256,uint8,bytes32,bytes32)":"d505accf","renounceRole(bytes32,address)":"36568abe","revokeRole(bytes32,address)":"d547741f","supportsInterface(bytes4)":"01ffc9a7","symbol()":"95d89b41","totalSupply()":"18160ddd","transfer(address,uint256)":"a9059cbb","transferFrom(address,address,uint256)":"23b872dd"},"id":75}